:020000040000FA
:10C2000080A202208D3F020055790800613F0200A4
:10C21000613F0200613F0200613F0200613F020096
:10C22000000000000000000000000000A138020033
:10C23000613F020000000000FD370200613F020084
:10C24000813A0200813A0200813A0200813A0200FA
:10C25000813A0200813A0200813A0200813A0200EA
:10C26000813A0200813A0200813A0200813A0200DA
:10C27000813A0200813A0200813A0200813A0200CA
:10C28000813A0200813A0200813A0200813A0200BA
:10C29000813A0200813A0200813A0200813A0200AA
:10C2A000813A0200813A0200813A0200813A02009A
:10C2B000813A0200813A0200813A0200813A02008A
:10C2C000813A0200813A0200813A0200813A02007A
:10C2D000813A0200813A0200813A0200813A02006A
:10C2E000813A0200813A0200813A0200813A02005A
:10C2F000813A0200813A0200813A0200813A02004A
:10C30000813A0200813A0200813A0200813A020039
:10C31000813A0200813A0200813A0200813A020029
:10C32000813A0200813A0200813A0200813A020019
:10C33000813A0200813A0200813A0200813A020009
:10C34000813A0200813A0200813A0200813A0200F9
:10C35000813A0200FFFFFFFF81F0004102E000BFD1
:10C3600083F0004330B54FEA41044FEA430594EAB5
:10C37000050F08BF90EA020F1FBF54EA000C55EAF0
:10C38000020C7FEA645C7FEA655C00F0E2804FEAC1
:10C390005454D4EB5555B8BF6D420CDD2C4480EAA3
:10C3A000020281EA030382EA000083EA010180EAD3
:10C3B000020281EA0303362D88BF30BD11F0004F21
:10C3C0004FEA01314FF4801C4CEA113102D0404257
:10C3D00061EB410113F0004F4FEA03334CEA133392
:10C3E00002D0524263EB430394EA050F00F0A780AA
:10C3F000A4F10104D5F1200E0DDB02FA0EFC22FAA5
:10C4000005F2801841F1000103FA0EF2801843FA98
:10C4100005F359410EE0A5F120050EF1200E012A89
:10C4200003FA0EFC28BF4CF0020C43FA05F3C018C7
:10C4300051EBE37101F0004507D54FF0000EDCF140
:10C44000000C7EEB00006EEB0101B1F5801F1BD3E9
:10C45000B1F5001F0CD349085FEA30004FEA3C0CED
:10C4600004F101044FEA445212F5800F80F09A80E3
:10C47000BCF1004F08BF5FEA500C50F1000041EBE7
:10C48000045141EA050130BD5FEA4C0C404141EBEB
:10C490000101013C28BFB1F5801FE9D291F0000FE6
:10C4A00004BF01460020B1FA81F308BF2033A3F195
:10C4B0000B03B3F120020CDA0C3208DD02F1140C8C
:10C4C000C2F10C0201FA0CF021FA02F10CE002F1C7
:10C4D0001402D8BFC2F1200C01FA02F120FA0CFCC0
:10C4E000DCBF41EA0C019040E41AA2BF01EB045109
:10C4F000294330BD6FEA04041F3C1CDA0C340EDC07
:10C5000004F11404C4F1200220FA04F001FA02F349
:10C5100040EA030021FA04F345EA030130BDC4F107
:10C520000C04C4F1200220FA02F001FA04F340EAFC
:10C530000300294630BD21FA04F0294630BD94F0AD
:10C54000000F83F4801306BF81F480110134013D94
:10C550004EE77FEA645C18BF7FEA655C29D094EA05
:10C56000050F08BF90EA020F05D054EA000C04BF83
:10C570001946104630BD91EA030F1EBF002100206E
:10C5800030BD5FEA545C05D14000494128BF41F00D
:10C59000004130BD14F580043CBF01F5801130BD71
:10C5A00001F0004545F0FE4141F470014FF00000FC
:10C5B00030BD7FEA645C1ABF194610467FEA655CAD
:10C5C0001CBF0B46024650EA013406BF52EA03354F
:10C5D00091EA030F41F4002130BD00BF90F0000F3D
:10C5E00004BF0021704730B54FF4806404F1320479
:10C5F0004FF000054FF0000150E700BF90F0000F32
:10C6000004BF0021704730B54FF4806404F1320458
:10C6100010F0004548BF40424FF000013EE700BF28
:10C6200042004FEAE2014FEA31014FEA02701FBFB8
:10C6300012F07F4393F07F4F81F06051704732F0EA
:10C640007F4208BF704793F07F4F04BF41F4002141
:10C65000704730B54FF4607401F0004521F000419F
:10C660001CE700BF50EA010208BF704730B54FF029
:10C6700000050AE050EA010208BF704730B511F02A
:10C68000004502D5404261EB41014FF4806404F162
:10C6900032045FEA915C3FF4D8AE4FF003025FEAE8
:10C6A000DC0C18BF03325FEADC0C18BF033202EB6C
:10C6B000DC02C2F1200300FA03FC20FA02F001FAC6
:10C6C00003FE40EA0E0021FA02F11444BDE600BF69
:10C6D00070B54FF0FF0C4CF4E06C1CEA11541DBF18
:10C6E0001CEA135594EA0C0F95EA0C0F00F0DEF8E3
:10C6F0002C4481EA030621EA4C5123EA4C5350EAC8
:10C70000013518BF52EA033541F4801143F4801318
:10C7100038D0A0FB02CE4FF00005E1FB02E506F0A9
:10C720000042E0FB03E54FF00006E1FB03569CF0FE
:10C73000000F18BF4EF0010EA4F1FF04B6F5007F04
:10C7400064F5407404D25FEA4E0E6D4146EB060676
:10C7500042EAC62141EA55514FEAC52040EA5E50FF
:10C760004FEACE2EB4F1FD0C88BFBCF5E06F1ED8A9
:10C77000BEF1004F08BF5FEA500E50F1000041EBE0
:10C78000045170BD06F0004646EA010140EA02008D
:10C7900081EA0301B4EB5C04C2BFD4EB0C0541EAAF
:10C7A000045170BD41F480114FF0000E013C00F3C4
:10C7B000AB8014F1360FDEBF002001F0004170BDE8
:10C7C000C4F10004203C35DA0C341BDC04F1140401
:10C7D000C4F1200500FA05F320FA04F001FA05F28D
:10C7E00040EA020001F0004221F0004110EBD3705A
:10C7F00021FA04F642EB06015EEA430E08BF20EA86
:10C80000D37070BDC4F10C04C4F1200500FA04F328
:10C8100020FA05F001FA04F240EA020001F00041BA
:10C8200010EBD37041F100015EEA430E08BF20EA2D
:10C83000D37070BDC4F1200500FA05F24EEA020E75
:10C8400020FA04F301FA05F243EA020321FA04F0A4
:10C8500001F0004121FA04F220EA020000EBD3705B
:10C860005EEA430E08BF20EAD37070BD94F0000F5B
:10C870000FD101F00046400041EB010111F4801F8F
:10C8800008BF013CF7D041EA060195F0000F18BF40
:10C89000704703F00046520043EB030313F4801F7C
:10C8A00008BF013DF7D043EA0603704794EA0C0F36
:10C8B0000CEA135518BF95EA0C0F0CD050EA41064C
:10C8C00018BF52EA4306D1D181EA030101F00041C9
:10C8D0004FF0000070BD50EA410606BF10461946F1
:10C8E00052EA430619D094EA0C0F02D150EA0136FD
:10C8F00013D195EA0C0F05D152EA03361CBF10463E
:10C9000019460AD181EA030101F0004141F0FE41DC
:10C9100041F470014FF0000070BD41F0FE4141F460
:10C92000780170BD70B54FF0FF0C4CF4E06C1CEA60
:10C9300011541DBF1CEA135594EA0C0F95EA0C0F15
:10C9400000F0A7F8A4EB050481EA030E52EA0335D0
:10C950004FEA013100F088804FEA03334FF08055F1
:10C9600045EA131343EA12634FEA022245EA11151E
:10C9700045EA10654FEA00260EF000419D4208BFCF
:10C98000964244F1FD0404F5407402D25B084FEA7C
:10C990003202B61A65EB03055B084FEA32024FF428
:10C9A00080104FF4002CB6EB020E75EB030E22BF85
:10C9B000B61A754640EA0C005B084FEA3202B6EB45
:10C9C000020E75EB030E22BFB61A754640EA5C00F4
:10C9D0005B084FEA3202B6EB020E75EB030E22BF84
:10C9E000B61A754640EA9C005B084FEA3202B6EB85
:10C9F000020E75EB030E22BFB61A754640EADC0044
:10CA000055EA060E18D04FEA051545EA16754FEAA5
:10CA100006164FEAC30343EA52734FEAC2025FEAC3
:10CA20001C1CC0D111F4801F0BD141EA00014FF052
:10CA300000004FF0004CB6E711F4801F04BF014323
:10CA40000020B4F1FD0C88BFBCF5E06F3FF6AFAE3F
:10CA5000B5EB030C04BFB6EB020C5FEA500C50F1CF
:10CA6000000041EB045170BD0EF0004E4EEA113152
:10CA700014EB5C04C2BFD4EB0C0541EA045170BD59
:10CA800041F480114FF0000E013C90E645EA060E9D
:10CA90008DE60CEA135594EA0C0F08BF95EA0C0FCB
:10CAA0003FF43BAF94EA0C0F0AD150EA01347FF413
:10CAB00034AF95EA0C0F7FF425AF104619462CE7EA
:10CAC00095EA0C0F06D152EA03353FF4FDAE10464D
:10CAD000194622E750EA410618BF52EA43067FF49E
:10CAE000C5AE50EA41047FF40DAF52EA43057FF42E
:10CAF000EBAE12E74FF0FF3C06E000BF4FF0010C39
:10CB000002E000BF4FF0010C4DF804CD4FEA410C9C
:10CB10007FEA6C5C4FEA430C18BF7FEA6C5C1BD069
:10CB200001B050EA410C0CBF52EA430C91EA030FEA
:10CB300002BF90EA020F0020704710F1000F91EA47
:10CB4000030F58BF994208BF90422CBFD8176FEA15
:10CB5000E37040F0010070474FEA410C7FEA6C5CE3
:10CB600002D150EA013C07D14FEA430C7FEA6C5CEA
:10CB7000D6D152EA033CD3D05DF8040B704700BF16
:10CB80008446104662468C461946634600E000BF64
:10CB900001B5FFF7B7FF002848BF10F1000F01BD36
:10CBA0004DF808EDFFF7F4FF0CBF012000205DF801
:10CBB00008FB00BF4DF808EDFFF7EAFF34BF012086
:10CBC00000205DF808FB00BF4DF808EDFFF7E0FF1F
:10CBD00094BF012000205DF808FB00BF4DF808ED70
:10CBE000FFF7CEFF94BF012000205DF808FB00BFD7
:10CBF0004DF808EDFFF7C4FF34BF012000205DF8B9
:10CC000008FB00BF4A0011D212F5001211D20DD557
:10CC10006FF47873B3EB62520ED44FEAC12343F042
:10CC2000004343EA505323FA02F070474FF00000EC
:10CC3000704750EA013002D14FF0FF3070474FF09B
:10CC4000000070474FEA4102B2F1E04324BFB3F560
:10CC5000001CDCF1FE5C0DD901F0004C4FEAC00273
:10CC60004CEA5070B2F1004F40EB830008BF20F057
:10CC70000100704711F0804F21D113F13872BCBF11
:10CC800001F00040704741F480114FEA5252C2F166
:10CC90001802C2F1200C10FA0CF320FA02F018BFAF
:10CCA00040F001004FEAC1234FEAD32303FA0CFC02
:10CCB00040EA0C0023FA02F34FEA4303CCE77FEA91
:10CCC000625307D150EA01331EBF4FF0FE4040F4DB
:10CCD0004000704701F0004040F0FE4040F400008A
:10CCE000704700BF7BB972B90029BEBF00204FF06A
:10CCF000004106E008BF00281CBF6FF000414FF064
:10CD0000FF3000F075B8ADF1080C6DE904CE0029D4
:10CD100009DB002B1ADB02F0B0FBDDF804E0DDE9F3
:10CD2000022304B07047404261EB4101002B1BDB42
:10CD300002F0A3FBDDF804E0DDE9022304B0404289
:10CD400061EB4101524263EB43037047524263EB94
:10CD5000430302F092FBDDF804E0DDE9022304B0B6
:10CD6000404261EB41017047524263EB430302F0E2
:10CD700084FBDDF804E0DDE9022304B0524263EBFA
:10CD80004303704753B94AB9002908BF00281CBFA4
:10CD90004FF0FF314FF0FF3000F02AB8ADF1080C32
:10CDA0006DE904CE02F069FBDDF804E0DDE9022361
:10CDB00004B07047D0B500220B4B06460F46FFF774
:10CDC00087FCFFF71FFF0446FFF708FC0022074B14
:10CDD000FFF77EFC02460B4630463946FFF7C0FAA5
:10CDE000FFF710FF2146D0BD0000F03D0000F041EC
:10CDF000704700BF2DE9F14F03F11C0402EB840CD6
:10CE00004FEA930B8A68CB680868496800F046F9D6
:10CE10003CE9F0006040694072407B400BF1060E37
:10CE20004EE083EA134480EA134582EA134746BA88
:10CE300096EA3444604000F00F1684EA063420F08D
:10CE40000F1684EA161054BA94EA0106724002F0F2
:10CE50000F1486EA043622F00F1486EA14124CBA34
:10CE60006540694001F00F1485EA043521F00F1484
:10CE700085EA14115CBA67407B4003F00F1487EA1F
:10CE8000043723F00F1487EA141344BA44404DBA10
:10CE90004D4056BA56405FBA5F4087EA174886EA67
:10CEA000174B84EA17464FEA38488BEA1B4485EA59
:10CEB0001B4788EA1B4580EA3440694072407B404A
:10CEC00000F0703400F0803500F00F3040EA44008C
:10CED00040EAD50080EA900404F0332480EA84001C
:10CEE000604001F0703401F0803501F00F3141EA0B
:10CEF000440141EAD50181EA910404F0332481EA36
:10CF00008401614002F0703402F0803502F00F328B
:10CF100042EA440242EAD50282EA920404F033244F
:10CF200082EA8402624003F0703403F0803503F03B
:10CF30000F3343EA440343EAD50383EA930404F03E
:10CF4000332483EA84036340C943DB4381EA00045A
:10CF500083EA044686EA020183EA014382EA334512
:10CF600083EA14435C4084EA00077FEA040A8AEA01
:10CF7000024A8AEA010B87EA11488AEA374A80EABC
:10CF8000060181EA1A418AEA030A04EA0A004540D6
:10CF900088EA040707EA0B0041408AEA0B0608EA20
:10CFA000060084EA34428AEA3A4602EA0603584016
:10CFB0004540414087EA37438BEA3B4003EA00099A
:10CFC00085EA090582EA0309464006EA0906714036
:10CFD00085EA010005EA3546464006EA314181EA24
:10CFE000304181EA364606EA304686EA3546344024
:10CFF0000F4086EA010508EA050886EA3640024045
:10D0000088EA020881EA314213405C4080EA020368
:10D0100009EA030987EA0907674088EA040806EA7B
:10D020000A0601EA0B018AEA0B0425408AEA3A441F
:10D03000204045408BEA3B4B02EA0B02564084EA13
:10D040000B04234059406E40694087EA364080EA2D
:10D05000384080EA060380EA104481EA134585EAF5
:10D06000344585EA17427D4082EA354180EA054031
:10D070003CE9F0006040694072407B40BEF1010E27
:10D080003FF6CFAE20BC00F05FF828606960AA6070
:10D09000EB60BDE8F08F00BF00F000BA80EA10142A
:10D0A00004F0F01480EA0410604081EA111404F0E6
:10D0B000F01481EA0411614082EA121404F0F014C1
:10D0C00082EA0412624083EA131404F0F01483EA43
:10D0D0000413634080EA102404F47F4480EA0420AF
:10D0E000604081EA112404F47F4481EA0421614014
:10D0F00082EA122404F47F4482EA0422624083EA32
:10D10000132404F47F4483EA0423634081EA500437
:10D1100004F0553480EA4400614083EA520404F08C
:10D12000553482EA4402634082EA900404F03334C6
:10D1300080EA8400624083EA910404F0333481EA97
:10D1400084016340704700BF82EA900404F03334E6
:10D1500080EA8400624083EA910404F0333481EA77
:10D160008401634081EA500404F0553480EA4400AD
:10D17000614083EA520404F0553482EA4402634079
:10D1800080EA102404F47F4480EA0420604081EAAD
:10D19000112404F47F4481EA0421614082EA1224CC
:10D1A00004F47F4482EA0422624083EA132404F4F4
:10D1B0007F4483EA0423634080EA101404F0F014EF
:10D1C00080EA0410604081EA111404F0F01481EA4E
:10D1D0000411614082EA121404F0F01482EA04128D
:10D1E000624083EA131404F0F01483EA04136340EA
:10D1F000704700BF2DE9F14F94464FEA930B8A68C0
:10D20000CB6808684968FFF749FF0BF1060E33E069
:10D2100083EA134480EA134582EA134746BA96EA42
:10D220003444604000F00F1684EA063420F00F16F4
:10D2300084EA161054BA94EA0106724002F00F1400
:10D2400086EA043622F00F1486EA14124CBA6540BE
:10D25000694001F00F1485EA043521F00F1485EAC6
:10D2600014115CBA67407B4003F00F1487EA04375F
:10D2700023F00F1487EA1413BCE8F0006040694003
:10D2800072407B4000F0E03400F0103500F00F30C9
:10D2900040EA540040EAC50080EA900404F03324D8
:10D2A00080EA8400604001F0E03401F0103501F0C4
:10D2B0000F3141EA540141EAC50181EA910404F0C9
:10D2C000332481EA8401614002F0E03402F0103539
:10D2D00002F00F3242EA540242EAC50282EA9204A4
:10D2E00004F0332482EA8402624003F0E03403F065
:10D2F000103503F00F3343EA540343EAC50383EACE
:10D30000930404F0332483EA8403634081EA3247C0
:10D3100087EA134581EA354690EA060484EA034B1E
:10D3200082EA1B4280EA044484EA054483EA144A00
:10D3300085EA14448BEA044B84EA374481EA0B41C2
:10D3400081EA164104EA0A00454082EA04082BEA11
:10D35000080041408AEA0B0602EA060084EA3443E8
:10D360008AEA3A4603EA060778404540414088EA9F
:10D3700038478BEA3B4007EA000985EA090583EA5A
:10D380000709464006EA0906714085EA010005EAF8
:10D390003546464006EA314181EA304181EA364667
:10D3A00006EA304686EA3546344008EA010886EA4D
:10D3B00001052A4086EA364003405A4081EA31435B
:10D3C0001F407C4080EA030709EA070988EA090848
:10D3D000544088EA020806EA0A0601EA0B018AEAD2
:10D3E0000B0215408AEA3A42104045408BEA3B4026
:10D3F00003405E404240174079404D404E40E44378
:10D40000F64386EA18435D4085EA054083EA134304
:10D4100086EA034183EA384284EA114383EA0443FB
:10D420005FEA3343BEF1010E3FF6F2AE1ED4BCE814
:10D43000F0006040694072407B4020BCFFF784FEF2
:10D4400028606960AA60EB60BDE8F08F2DE9E041DB
:10D450004FF2F00280EA1031114080EA013048407A
:10D4600041088208C3084FF0000E4FE700F011306A
:10D4700001F0113102F0113203F0113340EA4100A2
:10D4800040EA820040EAC3004FF2F00280EA103125
:10D49000114080EA01304840BDE8E0812DE9F04FBD
:10D4A00002F11C050646074600EB850851F8040BFF
:10D4B000043A46F8040BF9D14FF0010CFFF7C6FF10
:10D4C0005FEA302080EA0C001ECF41404A405340C2
:10D4D0005C401EC62000464517D04FEA4C0C1CF499
:10D4E000807F18BFACF1E50C2C2DE7D03C2D06D188
:10D4F000FFF7ACFF06CF41404A4006C6100006CFFA
:10D5000041404A4006C61000D8E736E90F00FFF751
:10D51000C5FD043D86E80F00F7D1BDE8F08F00BFE0
:10D520002DE9F00391E8F801B2E802125B1854EB20
:10D53000090455EB0C05B2E802124E4157EB0907FE
:10D5400058EB0C0880E8F80180410130BDE8F00399
:10D55000704700BF2DE9F00391E8F801B2E802122C
:10D560005B1A74EB090475EB0C05B2E802128E41EC
:10D5700077EB090778EB0C0880E8F801804140421E
:10D58000BDE8F003704700BF2DE9F001524290E87A
:10D590003800B1E8C00116409B1917407C4118EAD9
:10D5A000020855EB080538C090E8380091E8C00142
:10D5B0001640734117407C4118EA020855EB0805F4
:10D5C00038C080410130BDE8F00170472DE9F0011D
:10D5D000524290E83800B1E8C00116409B1B17404A
:10D5E000BC4118EA020875EB080538C090E838001D
:10D5F00091E8C0011640B3411740BC4118EA020847
:10D6000075EB080538C080414042BDE8F001704725
:10D610002DE9F00152424FF0030890E8300091E804
:10D62000C000A31B1340E41AF618EB1B1340ED1ABD
:10D63000FF1830C0C0C1B8F10108EED1BDE8F0015B
:10D64000704700BFD2EC060AB1E8001E91EC026AF6
:10D6500055EC304A57EC316AA9FB0412AAFB0403CB
:10D66000E9FB6520EBFB643042EC141AAAFB0521B0
:10D67000ECFB6401E9FB6632EAFB6602EBFB661237
:10D6800005EE103AA9FB0743EAFB6713EBFB6723A0
:10D6900012EE908AEBFB6504ECFB6514EAFB682450
:10D6A000EBFB6834A9FB086513EE108AE9FB6825DB
:10D6B000EAFB6835EBFB684510EE909A5BEC16AA26
:10D6C000EAFB6916EBFB6926ECFB6736EAFB67466B
:10D6D000EBFB675611EE109AAAFB0987EBFB693743
:10D6E00012EE909AECFB6947EAFB6957EBFB69671E
:10D6F00011EE909AECFB6928EAFB6938EBFB69486C
:10D7000013EE109AECFB6958EAFB6968EBFB697849
:10D71000704700BF2DE9F04F07EE900AFFF792FF28
:10D7200017EE909AA9EC034A89E8FF01BDE8F08F53
:10D7300091E8801FA7FB0712A8FB0703E7FB6820FF
:10D74000E7FB693042EC141AA7FB0921E7FB6A01E9
:10D75000E8FB6832E7FB6A02E7FB6B1205EE103A62
:10D76000A8FB0943E7FB6B13E7FB6C23E8FB6904A9
:10D77000E8FB6A14E7FB6C24E8FB6C34A8FB0A6541
:10D78000E8FB6B25E8FB6C35E9FB6C45E9FB6916AA
:10D79000E8FB6B26E9FB6B36E9FB6C46EAFB6C5653
:10D7A000A9FB0A87E9FB6B37EAFB6B47EAFB6C577F
:10D7B000EBFB6C67E9FB6A28EAFB6A38EAFB6B481B
:10D7C000EBFB6B58EBFB6C68ECFB6C78704700BFB5
:10D7D0002DE9F04F07EE900AFFF7AAFF17EE909A97
:10D7E000A9EC034A89E8FF01BDE8F08F2DE9F003B9
:10D7F00091E8F803B2E802105B1854EB0C04B2E8AD
:10D8000002104D4156EB0C0692E806104F4158EBC2
:10D81000020859EB0C0980E8F80380410130BDE8AB
:10D82000F00370472DE9F00391E8F803B2E8021025
:10D830005B1A74EB0C04B2E802108D4176EB0C0617
:10D8400092E806108F4178EB020879EB0C0980E82A
:10D85000F80380414042BDE8F00370472DE9F00332
:10D86000524290E83800B1E880031740DB1918EA0B
:10D87000020854EB080419EA020955EB090538C0FF
:10D8800090E8780091E8820311404B4117407C41B9
:10D8900018EA020855EB080519EA020956EB0906D1
:10D8A00078C080410130BDE8F00370472DE9F003F6
:10D8B000524290E83800B1E880031740DB1B18EAB9
:10D8C000020874EB080419EA020975EB090538C06F
:10D8D00090E8780091E8820311408B411740BC41E9
:10D8E00018EA020875EB080519EA020976EB090641
:10D8F00078C080414042BDE8F00370472DE9F00157
:10D9000052424FF0030890E8300091E8C000A31B9A
:10D910001340E41AF618EB1B1340ED1AFF1830C041
:10D92000C0C1B8F10108EED104680E68A31B134012
:10D93000E41AF61804600E60BDE8F001704700BFFD
:10D9400000B592EC070AB1E8005E07EE101A56EC3B
:10D95000102A58EC117AA9FB0250AAFB0234E9FB09
:10D960006603EBFB624340EC145AAAFB0605ECFB92
:10D970006235E9FB6740E9FB6830EEFB6250AAFBC9
:10D980000721EAFB6851EBFB680112EE108AEBFB02
:10D990006632ECFB6652EAFB6802EBFB681243EC72
:10D9A000154AA9FB084312EE908AE9FB6803EAFBDB
:10D9B0006813EBFB6823EBFB6754EEFB660413EE86
:10D9C000108AE9FB6814EAFB6824EBFB683406EE76
:10D9D000105A17EE109A99E8000CACFB076511EE8F
:10D9E000909AECFB6915EEFB6925EAFB6935EBFBC8
:10D9F000694510EE109AEAFB6906EBFB691612EE18
:10DA0000109AECFB6926EEFB6936EAFB6946EBFBF4
:10DA1000695610EE909AAAFB0987EBFB692712EE74
:10DA2000909AECFB6937EEFB6947EAFB6957EBFB21
:10DA3000696711EE109AEEFB6918EAFB6928EBFBA7
:10DA4000693813EE109AECFB6948EEFB6958EAFB63
:10DA50006968EBFB697800BD2DE9F04F07EE900A8D
:10DA6000FFF76EFF17EE909AA9EC054A89E8FF01CF
:10DA7000BDE8F08F00B591E8805FA7FB0750A7FBDA
:10DA80000834E7FB6803E7FB694340EC145AA7FB43
:10DA90000905E7FB6A35E8FB6840E7FB6A30E7FB0E
:10DAA0006B50A8FB0921E7FB6B51E7FB6C01E8FB1E
:10DAB0006932E8FB6A52E7FB6C02E7FB6E1243EC4B
:10DAC000154AA8FB0A43E8FB6B03E7FB6E13E8FB70
:10DAD0006E23E9FB6954E8FB6B04E8FB6C14E8FB7C
:10DAE0006E24E9FB6E3406EE105AA9FB0A65E8FBCA
:10DAF0006C15E9FB6C25E9FB6E35EAFB6E45E9FB2D
:10DB00006A06E9FB6B16E9FB6C26EAFB6C36EAFB5E
:10DB10006E46EBFB6E56A9FB0B87EAFB6B27EAFB15
:10DB20006C37EBFB6C47EBFB6E57ECFB6E67EAFB6D
:10DB30006A18EAFB6B28EBFB6B38EBFB6C48ECFBE1
:10DB40006C58ECFB6E68EEFB6E7800BD2DE9F04F73
:10DB500007EE900AFFF78EFF17EE909AA9EC054AA0
:10DB600089E8FF01BDE8F08F2DE9F00791E8F8079B
:10DB7000B2E802105B1854EB0C04B2E802104D41FD
:10DB800056EB0C06B2E802104F4158EB0C08B2E815
:10DB9000021059EB01095AEB0C0A80E8F8078041A2
:10DBA0000130BDE8F00770472DE9F00791E8F8076C
:10DBB000B2E802105B1A74EB0C04B2E802108D415B
:10DBC00076EB0C06B2E802108F4178EB0C08B2E855
:10DBD000021079EB01097AEB0C0A80E8F807804122
:10DBE0004042BDE8F00770472DE9F007524290E847
:10DBF0007800B1E880071740DB1918EA020854EBF7
:10DC0000080419EA020955EB09051AEA020A56EB5B
:10DC10000A0678C090E87800B1E8800717407B4199
:10DC200018EA020854EB080419EA020955EB090541
:10DC30001AEA020A56EB0A0678C080410130BDE8B4
:10DC4000F00770472DE9F007524290E87800B1E8FC
:10DC500080071740DB1B18EA020874EB080419EA76
:10DC6000020975EB09051AEA020A76EB0A0678C082
:10DC700090E87800B1E880071740BB4118EA020835
:10DC800074EB080419EA020975EB09051AEA020A9D
:10DC900076EB0A0678C080414042BDE8F007704745
:10DCA0002DE9F00152424FF0040890E8300091E86D
:10DCB000C000A31B1340E41AF618EB1B1340ED1A27
:10DCC000FF1830C0C0C1B8F10108EED1BDE8F001C5
:10DCD000704700BF00B592EC080AB1E8805707EE24
:10DCE000101A53EC102A56EC114AA7FB0251A8FB5C
:10DCF000020BE7FB6310E9FB62B041EC145AA8FB8E
:10DD00000351EAFB6201E7FB64B5E7FB6605E8FB4C
:10DD1000661505EE10BAA9FB03B6EAFB6316ECFB29
:10DD20006356E8FB640BE9FB641BEAFB645BECFBFA
:10DD3000646B05EE900AACFB023012EE104AEEFB6B
:10DD40006250E9FB6460EAFB64B0E7FB6431E8FB26
:10DD5000645112EE904AE8FB6461E9FB64B1EAFBAE
:10DD6000640106EE103AA7FB043213EE104AE7FBFB
:10DD70006462E8FB64B2E9FB6402EAFB641211EE40
:10DD8000904AE9FB6453EAFB646313EE904AE7FBB5
:10DD900064B3E8FB6403E9FB6413EAFB642306EE67
:10DDA000905A17EE109A99E8000610EE108AA9FB17
:10DDB0000854EAFB68B412EE108AECFB6804EEFB30
:10DDC0006814E9FB6824EAFB683410EE908AEEFBE5
:10DDD0006865E9FB68B5EAFB680512EE908AECFB22
:10DDE0006815EEFB6825E9FB6835EAFB684507EE38
:10DDF000106A11EE108AAEFB0876E9FB6806EAFBB2
:10DE0000681613EE108AECFB6826EEFB6836E9FB19
:10DE10006846EAFB685611EE908AECFB68B7EEFBA9
:10DE20006807E9FB6817EAFB682713EE908AECFBAA
:10DE30006837EEFB6847E9FB6857EAFB686700BD97
:10DE40002DE9F04F07EE900AFFF744FF17EE908A96
:10DE500007EE90BAA8EC084A88E8FF00BDE8F08F0A
:10DE600000B591E89857A3FB0352A3FB0401E3FB21
:10DE70006420E3FB671042EC145AA3FB0752E3FB58
:10DE80006802E4FB6415E3FB6805E3FB6925A4FB7A
:10DE900007B6E3FB6926E3FB6A56E4FB670BE4FB8A
:10DEA000682BE3FB6A5BE3FB6C6B40EC151AA4FB8D
:10DEB0000810E4FB6950E3FB6C60E3FB6EB0E7FB2A
:10DEC0006721E4FB6951E4FB6A61E3FB6EB1E4FBAB
:10DED0006E0106EE102AA7FB0832E4FB6A62E4FB3F
:10DEE0006CB2E4FB6E02E7FB6E12E7FB6853E7FBE4
:10DEF0006963E4FB6CB3E7FB6C03E7FB6E13E8FBC1
:10DF00006E2306EE905AA7FB0954E7FB6AB4E7FBC1
:10DF10006C04E8FB6C14E8FB6E24E9FB6E34E8FB50
:10DF20006865E7FB6AB5E8FB6A05E8FB6C15E9FB89
:10DF30006C25E9FB6E35EAFB6E4507EE106AA8FB1F
:10DF40000976E8FB6A06E9FB6A16E9FB6C26EAFB40
:10DF50006C36EAFB6E46ECFB6E56E8FB69B7E9FBF4
:10DF60006907E9FB6A17EAFB6A27EAFB6C37ECFBF7
:10DF70006C47ECFB6E57EEFB6E6700BD2DE9F04F72
:10DF800007EE900AFFF76CFF17EE908A07EE90BA43
:10DF9000A8EC084A88E8FF00BDE8F08F2DE9F00FF3
:10DFA000B1E8F801B2E8001E13EB090354EB0A04D0
:10DFB00055EB0B0556EB0C06B2E8001E57EB0907B4
:10DFC00058EB0A08A0E8F80191E8F80153EB0B03BD
:10DFD00054EB0C0492E8001E55EB090556EB0A06BB
:10DFE00057EB0B0758EB0C0880E8F8018041013033
:10DFF000BDE8F00F704700BF2DE9F00FB1E8F80160
:10E00000B2E8001EB3EB090374EB0A0475EB0B05D1
:10E0100076EB0C06B2E8001E77EB090778EB0A08EE
:10E02000A0E8F80191E8F80173EB0B0374EB0C0422
:10E0300092E8001E75EB090576EB0A0677EB0B07F5
:10E0400078EB0C0880E8F80180414042BDE8F00F11
:10E05000704700BF2DE9F007524290E87800B1E820
:10E0600080071740DB1918EA020854EB080419EA84
:10E07000020955EB09051AEA020A56EB0A0678C0AE
:10E0800090E87800B1E8800717407B4118EA020861
:10E0900054EB080419EA020955EB09051AEA020AC9
:10E0A00056EB0A0678C090E87800B1E88007174080
:10E0B0007B4118EA020854EB080419EA020955EBFF
:10E0C00009051AEA020A56EB0A0678C080410130B7
:10E0D000BDE8F007704700BF2DE9F007524290E815
:10E0E0007800B1E880071740DB1B18EA020874EBE0
:10E0F000080419EA020975EB09051AEA020A76EB27
:10E100000A0678C090E87800B1E880071740BB4164
:10E1100018EA020874EB080419EA020975EB09050C
:10E120001AEA020A76EB0A0678C090E87800B1E8AD
:10E1300080071740BB4118EA020874EB080419EA8B
:10E14000020975EB09051AEA020A76EB0A0678C09D
:10E1500080414042BDE8F007704700BF2DE9F00163
:10E1600052424FF0060890E8300091E8C000A31B2F
:10E170001340E41AF618EB1B1340ED1AFF1830C0D9
:10E18000C0C1B8F10108EED1BDE8F001704700BF91
:10E1900000B5D2EC0C0A41EC170A0FC910EE909AA8
:10E1A0005BEC11AA5EEC12CAA0FB0967A1FB09583F
:10E1B000E0FB6A75E2FB698517EE104AC4E9006767
:10E1C000A1FB0A76E3FB6956E0FB6B87E1FB6B572B
:10E1D000E2FB6B67C4F80880A0FB0C98E1FB6C685D
:10E1E000E2FB6C78E2FB6A59E3FB6A69E1FB6E795A
:10E1F000E2FB6E89E560A0FB0EBA13EE10EAE0FBCD
:10E200006E7AE1FB6E8AE2FB6E9A17EE904AD4E9D1
:10E21000044510EE90EAE4FB6E6BE5FB6E7BE3FBDE
:10E220006C8BE4FB6C9BE5FB6CAB17EE10EACEF855
:10E23000106011EE106AA4FB06ECE5FB668C12EE92
:10E24000906AE3FB669CE4FB66ACE5FB66BC11EE02
:10E25000906AE3FB667EE4FB668EE5FB669E13EE4A
:10E26000106AE3FB66AEE4FB66BEE5FB66CE17EE26
:10E27000104A04F1140484E8805F13EE905A57ECBE
:10E28000146A59EC158AA0FB05CEA1FB05BAE0FB88
:10E2900066EBE2FB65AB2DE90050A1FB06ECE3FB6E
:10E2A00065BCE0FB67AEE1FB67BEE2FB67CEA0FBAF
:10E2B0000854E1FB68C4E2FB68E4E2FB66B5E3FBFB
:10E2C00066C5E1FB69E5E2FB6945A0FB097616EE50
:10E2D000109AE0FB69E6E1FB6946E2FB695617EE3E
:10E2E000902AD2E9041213EE909AE1FB69C7E2FB8F
:10E2F00069E7E3FB6847E1FB6857E2FB686714EEF8
:10E30000100AA1FB0098E2FB604815EE900AE3FBBF
:10E310006058E1FB6068E2FB607814EE900AE3FB72
:10E3200060E9E1FB6049E2FB605916EE100AE3FB8D
:10E330006069E1FB6079E2FB608917EE100A00F189
:10E34000300181E8F0038769BDE8000317EE900A09
:10E3500000F118003FC810EE906AE0FB6687E1FB11
:10E360006697E2FB66A7E3FB66B7E4FB66C7E5FBDF
:10E3700066E717EE106AC6F81880D6F81C8011EE12
:10E38000106AE0FB6698E1FB66A8E2FB66B8E3FB77
:10E3900066C8E4FB66E8E5FB667817EE106AC6F827
:10E3A0001C90D6F8209011EE906AE0FB66A9E1FB84
:10E3B00066B9E2FB66C9E3FB66E9E4FB6679E5FB67
:10E3C000668917EE106AC6F820A0D6F824A012EECF
:10E3D000106AE0FB66BAE1FB66CAE2FB66EAE3FBB1
:10E3E000667AE4FB668AE5FB669A17EE106AC6F861
:10E3F00024B0D6F828B012EE906AE0FB66CBE1FBC1
:10E4000066EBE2FB667BE3FB668BE4FB669BE5FB6E
:10E4100066AB17EE106AC6F828C0D6F82CC013EE0B
:10E42000106AE0FB66ECE1FB667CE2FB668CE3FBDA
:10E43000669CE4FB66ACE5FB66BC17EE106AC6F8AA
:10E440002CE0366B13EE90EAE0FB6E76E1FB6E8615
:10E45000E2FB6E96E3FB6EA6E4FB6EB6E5FB6EC6D2
:10E4600017EE10EACEF83070DEF8347014EE10EAD1
:10E47000E0FB6E87E1FB6E97E2FB6EA7E3FB6EB7F6
:10E48000E4FB6EC7E5FB6E6717EE10EACEF834804A
:10E49000DEF8388014EE90EAE0FB6E98E1FB6EA89F
:10E4A000E2FB6EB8E3FB6EC8E4FB6E68E5FB6E78DA
:10E4B00017EE10EACEF83890DEF83C9015EE10EA30
:10E4C000E0FB6EA9E1FB6EB9E2FB6EC9E3FB6E698E
:10E4D000E4FB6E79E5FB6E8917EE10EACEF83CA0FE
:10E4E000DEF840A015EE90EAE0FB6EBAE1FB6ECAE2
:10E4F000E2FB6E6AE3FB6E7AE4FB6E8AE5FB6E9AE2
:10E5000017EE10EACEF840B0DEF844B016EE10EA8E
:10E51000E0FB6ECBE1FB6E6BE2FB6E7BE3FB6E8B95
:10E52000E4FB6E9BE5FB6EAB17EE100AC0F844C02F
:10E5300000BD00BF2DE9F14FFFF72AFE5DF804CBC7
:10E540000CF1480C8CE8C00FBDE8F08F00B5D1ECA1
:10E550000C0A07EE100A51EC300A53EC312A55EC44
:10E56000324AA0FB0089A1FB00BAE0FB619BE2FB01
:10E5700060AB17EE106AE6E80289A1FB017CE3FBC1
:10E5800060BCE0FB62A7E1FB62B7E2FB62C7A0FBF5
:10E590000398E1FB63C8E2FB6378E2FB61B9E3FB4C
:10E5A00061C9E1FB6479E2FB6489E6E802ABA0FBA8
:10E5B00004BAE0FB657AE1FB658AE2FB659AE4FB5D
:10E5C00060CBE5FB607BE3FB638BE4FB639BE5FBDC
:10E5D00063AB46F804CBA4FB01ECE5FB618CE3FBE9
:10E5E000649CE4FB64ACE5FB64BCE3FB627EE4FB9F
:10E5F000628EE5FB629EE3FB65AEE4FB65BEE5FB78
:10E6000065CE86E8805F13EE905A57EC146A59EC99
:10E61000158AA0FB05CEA1FB05BAE0FB66EBE2FB89
:10E6200065AB2DE90050A1FB06ECE3FB65BCE0FB0C
:10E6300067AEE1FB67BEE2FB67CEA0FB0854E1FBDF
:10E6400068C4E2FB68E4E2FB66B5E3FB66C5E1FB98
:10E6500069E5E2FB6945A0FB097616EE109AE0FB3E
:10E6600069E6E1FB6946E2FB695652EC321A13EEA9
:10E67000900AE1FB60C7E2FB60E7E3FB6847E1FB70
:10E680006857E2FB686714EE100AA1FB0098E2FBF2
:10E69000604815EE900AE3FB6058E1FB6068E2FB1E
:10E6A000607814EE900AE3FB60E9E1FB6049E2FB6D
:10E6B000605916EE100AE3FB6069E1FB6079E2FB4A
:10E6C000608917EE100A00F1300181E8F0038769D4
:10E6D000BDE8000351EC330A53EC342A55EC354ABB
:10E6E00010EE906AE0FB6687E1FB6697E2FB66A7A7
:10E6F000E3FB66B7E4FB66C7E5FB66E717EE106A67
:10E70000C6F81880D6F81C8011EE106AE0FB6698F7
:10E71000E1FB66A8E2FB66B8E3FB66C8E4FB66E8DB
:10E72000E5FB667817EE106AC6F81C90D6F82090C4
:10E7300011EE906AE0FB66A9E1FB66B9E2FB66C9EF
:10E74000E3FB66E9E4FB6679E5FB668917EE106A90
:10E75000C6F820A0D6F824A012EE106AE0FB66BA34
:10E76000E1FB66CAE2FB66EAE3FB667AE4FB668AE3
:10E77000E5FB669A17EE106AC6F824B0D6F828B002
:10E7800012EE906AE0FB66CBE1FB66EBE2FB667B98
:10E79000E3FB668BE4FB669BE5FB66AB17EE106A5A
:10E7A000C6F828C0D6F82CC013EE106AE0FB66EC61
:10E7B000E1FB667CE2FB668CE3FB669CE4FB66ACFB
:10E7C000E5FB66BC17EE106AC6F82CE0366BE0FB82
:10E7D0006076E1FB6086E2FB6096E3FB60A6E4FB0B
:10E7E00060B6E5FB60C617EE10EACEF83070DEF8D2
:10E7F0003470E0FB6187E1FB6197E2FB61A7E3FB1B
:10E8000061B7E4FB61C7E5FB6167CEF83480DEF8F1
:10E810003880E0FB6298E1FB62A8E2FB62B8E3FBB0
:10E8200062C8E4FB6268E5FB6278CEF83890DEF8F7
:10E830003C90E0FB63A9E1FB63B9E2FB63C9E3FB46
:10E840006369E4FB6379E5FB6389CEF83CA0DEF8FD
:10E8500040A0E0FB64BAE1FB64CAE2FB646AE3FB4C
:10E86000647AE4FB648AE5FB649ACEF840B0DEF893
:10E8700044B0E0FB65CBE1FB656BE2FB657BE3FB52
:10E88000658BE4FB659BE5FB65ABCEF844C000BD42
:10E890002DE9F14FFFF75AFE5DF804CB0CF1480C5F
:10E8A0008CE8C00FBDE8F08F30B44FF0000310F8D3
:10E8B000014B11F8015B013A84EA050443EA0403C1
:10E8C000F5D1A3F101034FEAD37030BC704700BF0C
:10E8D0004FF0000310F8012B013943EA0203F9D18C
:10E8E000A3F101034FEAD370704700BF30B411F8B1
:10E8F000014B12F8015B6C4000F8014B013BF6D173
:10E9000030BC70472DE9F00791E8F807B2E8021033
:10E910005B1854EB0C04B2E802104D4156EB0C06A8
:10E92000B2E802104F4158EB0C08B2E8021059EB64
:10E9300001095AEB0C0A4FF0260261EB010122EAB1
:10E9400001015B1854F1000455F1000556F1000671
:10E9500057F1000758F1000859F100095AF1000A6F
:10E9600061EB010122EA01010B4480E8F807BDE8F0
:10E97000F00770472DE9F00791E8F807B2E80210B8
:10E980005B1A74EB0C04B2E802108D4176EB0C06B6
:10E99000B2E802108F4178EB0C08B2E8021079EB74
:10E9A00001097AEB0C0A4FF0260261EB010102EA41
:10E9B00001015B1A74F1000475F1000576F100069F
:10E9C00077F1000778F1000879F100097AF1000A7F
:10E9D00061EB010102EA0101A3EB010380E8F80702
:10E9E000BDE8F007704700BF2DE9F04F07EE900A31
:10E9F000FFF770F94FF0260C59EC148A4FF0000A1B
:10EA0000E0FB0C8AE1FB6C9A51EC150AE2FB6CA06E
:10EA1000E3FB6C0153EC162AE4FB6C12E5FB6C2360
:10EA20005EEC174AE6FB6C34E7FB6CB40CFB04F4B9
:10EA300018EB040459F100055AF1000650F10007E3
:10EA400051F1000852F1000953F1000A5BF1000B8B
:10EA500060EB00002CEA000004448EE8F00FBDE8F3
:10EA6000F08F00BF2DE9F04F07EE900AFFF7F8F99D
:10EA7000C0E700BF2DE9F00391E8F8134FF4EE3141
:10EA8000BF390022E3FB6123E4FB6134E5FB614510
:10EA9000E6FB6156E7FB6167E8FB6178E9FB6189AA
:10EAA000ECFB619C4FF0260101FB0CFC12EB0C020D
:10EAB00053F1000354F1000455F1000556F100062E
:10EAC00057F1000758F1000859F100096CEB0C0CE4
:10EAD00021EA0C010A4480E8FC03BDE8F00370471A
:10EAE0002DE9F00390E8F8134FEAEC7202F01302FC
:10EAF0002CF0004C02F11301591854F1000155F1AA
:10EB0000000156F1000157F1000158F1000159F1DF
:10EB100000015CF100014FEAE17101F013011144C1
:10EB20005B1854F1000455F1000556F1000657F149
:10EB3000000758F1000859F100094CF1000C2CF0C5
:10EB4000004C80E8F813BDE8F00370472DE9F003AE
:10EB500091E8F803B2E802105B1854EB0C04B2E839
:10EB600002104D4156EB0C0692E806104F4158EB4F
:10EB7000020859EB0C098941013B74F1000475F15D
:10EB8000000576F1FF3677F1FF3778F1FF3879F13C
:10EB9000FF3951F1000113EBD17354F1000455F129
:10EBA00000054E414F4158EB010859EB010980E83F
:10EBB000F803BDE8F00370472DE9F00391E8F8038E
:10EBC000B2E802105B1A74EB0C04B2E802108D413B
:10EBD00076EB0C0692E806108F4178EB020879EB91
:10EBE0000C09894113EBD17354F1000455F1000570
:10EBF0004E414F4158EB010859EB010980E8F803F9
:10EC0000BDE8F003704700BF2DE9F04F07EE900A12
:10EC1000FEF796FE5AEC359AB9EB05097AEB060A2F
:10EC2000B84171EB080172F1000273F1000374F155
:10EC300000046BEB0B0B491972417B4154EB080448
:10EC40004BF1000557EC146A15EE108ABEEB0E0E60
:10EC500059EB02095AEB030A604169415EF1000E6B
:10EC600096419F4178EB040879EB05097AF1000A97
:10EC700070F1000B71F1000C6EF1010E16EBDE76F7
:10EC800057F1000758F1000859EB0E095AEB0E0A2C
:10EC90005BEB0E0B5CEB0E0C17EE900A80E8C01FCE
:10ECA000BDE8F08F2DE9F04F07EE900AFEF7E2FE87
:10ECB000B0E700BF2DE9F00791E8F807B2E80210CD
:10ECC0005B1854EB0C04B2E802104D4156EB0C06F5
:10ECD000B2E802104F4158EB0C08B2E8021059EBB1
:10ECE00001095AEB0C0A8941B3F1FF3374F1FF3487
:10ECF00075F1FF3576F1000677F1000778F100082D
:10ED000079F101097AF1FF3A51F100015B184C41A8
:10ED10004D4156F1000657F1000758F1000859EB34
:10ED2000D1795AEB010A80E8F807BDE8F00770478F
:10ED30002DE9F00791E8F807B2E802105B1A74EBCE
:10ED40000C04B2E802108D4176EB0C06B2E802101A
:10ED50008F4178EB0C08B2E8021079EB01097AEBED
:10ED60000C0A89415B184C414D4156F1000657F1A0
:10ED7000000758F1000859EBD1795AEB010A80E8F5
:10ED8000F807BDE8F007704718EB040859EB0509D0
:10ED90005AEB060A5BEB070B5FF0000C4CF1000C22
:10EDA00018EB050859EB06095AEB070A5BEB070B52
:10EDB00050EB0C005FF0000C51EB0C0152EB0C021D
:10EDC00063414CF1000CB8EB070879F100097AF1C6
:10EDD000000A7BEB040BA841B141A241B3416CF1A5
:10EDE000000CBBEB050BB041B941AA41BB416CF132
:10EDF000000C4CF001068CF0020718EB060859EBEA
:10EE00006C095AEB6C0A7BEB6C0B70EB6C0471EBCE
:10EE10006C0572EB670653EB6C076CEB6C0C18EB34
:10EE20000C0059EB0C015AEB0C025BF1000354F19E
:10EE3000000455F1000556EBDC7657EB0C077047E4
:10EE40002DE9F04F07EE900AFEF744FF59EC168AC1
:10EE500017EE10AAFFF798FF59EC148A5BEC15AA7D
:10EE6000FFF792FF17EE908A88E8FF00BDE8F08F69
:10EE70002DE9F04F07EE900AFEF7F2FF59EC168AE3
:10EE800017EE10AAFFF780FF59EC148A5BEC15AA65
:10EE9000FFF77AFF17EE908A88E8FF00BDE8F08F51
:10EEA0002DE9F04FB1E8C003B2E83804F618674125
:10EEB00058EB050859EB0A092DE9C003B1E8C00376
:10EEC000B2E838045E41674158EB050859EB0A097E
:10EED00091E8005C3CCA5AEB020A5BEB030B5CEB6B
:10EEE000040C5EEB050E89413CBCB2F1FF3273F1BC
:10EEF000000374F1000475F1FF3556F1010677F156
:10EF0000FF3778F1FF3879F1FF397AF1FF3A7BF179
:10EF1000FF3B7CF1FF3C7EF1FF3E51F100015218B6
:10EF200053F1000354F100044D4156EB41064F41AB
:10EF300058EB010859EB01095AEB010A5BEB010B95
:10EF40005CEB010C5EEB010E80E8FC5FBDE8F08F2E
:10EF50002DE9F04FB1E8C003B2E83804F61AA74132
:10EF600078EB050879EB0A092DE9C003B1E8C00385
:10EF7000B2E838049E41A74178EB050879EB0A090D
:10EF800091E8005C3CCA7AEB020A7BEB030B7CEB5A
:10EF9000040C7EEB050E89413CBC521853F1000372
:10EFA00054F100044D4156EB41064F4158EB010826
:10EFB00059EB01095AEB010A5BEB010B5CEB010C0D
:10EFC0005EEB010E80E8FC5FBDE8F08F80197941AF
:10EFD00052EB080253EB090354EB0A0455EB0B0503
:10EFE0004CF1000C9B197C4155EB08054CF1000CD1
:10EFF000A4197D414CF1000C891BBA4173EB080345
:10F0000074EB090475EB0A056CF1000CDDE90C6783
:10F0100016EB0C064FEAEC7C57EB0C074CF1000C9E
:10F0200016EB080657EB09074CF1000C16EB090626
:10F0300057EB0A074CF1000CB6EB0B06DDF8188015
:10F0400077EB08076CF1000CDDE90E8918EB0C0872
:10F050004FEAEC7C59EB0C094CF1000C18EB0A0858
:10F0600059EB0B09DDF818A04CEB0A0C18EB0B0858
:10F0700059EB0A094CF1000CDDE910AB1AEB0C0A54
:10F080005BF1000B704700BF2DE9F14F98B0684667
:10F09000FFF77EF806A83FC84FF0000CCDF818C067
:10F0A0004FF0010CFFF792FF0DF1300C8CE83F00A0
:10F0B0004FF0000C4CF1000C9DE83F00CDF818C05B
:10F0C000FFF784FF6CEB0C0C10EB0C0051F100010E
:10F0D00052F1000253EB0C0354EB4C0455EB0C05BE
:10F0E00056EB0C0657EB0C0758EB0C0859EB0C09C8
:10F0F0005AEB0C0A5BEB0C0B18B05DF804CB8CE8F8
:10F10000FF0FBDE8F08F00BF2DE9F14F98B06846C2
:10F11000FFF71CFABEE700BF2DE9F04F90E8F00FB3
:10F1200000F140004FF0040E59E0F0B4826BC36B65
:10F1300004680525242687593C444FEA724787EA2C
:10F14000F24787EA92273C4442684FEAF21787EA7F
:10F15000B24787EAD2073C4440F8044B032D08BF6E
:10F160006FF01B0687593A444FEA734787EAF34723
:10F1700087EA93273A4443684FEAF31787EAB3478D
:10F1800087EAD3073A4440F8042B87593B444FEAB7
:10F19000744787EAF44787EA94273B4444684FEA78
:10F1A000F41787EAB44787EAD4073B4440F8043BA6
:10F1B000013DC0D1A0F13C00076A3C444FEA7247D0
:10F1C00087EAF24787EA92273C4402684FEAF2173F
:10F1D00087EAB24787EAD2073C44C463F0BC4FF0E9
:10F1E000020288EA781C8CEAF84C0BEBBC1C8AEA19
:10F1F000090303EA080383EA0A039C4450F8043B2A
:10F200009C4451F8043B9C44674444EA050B0BEAD8
:10F21000060B04EA05034BEA030BE34484EAF423F8
:10F2200083EA34530BEBB30B87EA771C8CEAF74C79
:10F230000AEBBC1C89EA080303EA070383EA090313
:10F240009C4450F8043B9C4451F8043B9C44664465
:10F250004BEA040A0AEA050A0BEA04034AEA030A2B
:10F26000E2448BEAFB2383EA3B530AEBB30A86EAC8
:10F27000761C8CEAF64C09EBBC1C88EA070303EA0F
:10F28000060383EA08039C4450F8043B9C4451F86D
:10F29000043B9C4465444AEA0B0909EA04090AEA6A
:10F2A0000B0349EA0309E1448AEAFA2383EA3A5361
:10F2B00009EBB30985EA751C8CEAF54C08EBBC1C1C
:10F2C00087EA060303EA050383EA07039C4450F830
:10F2D000043B9C4451F8043B9C44644449EA0A08BA
:10F2E00008EA0B0809EA0A0348EA0308E04489EA45
:10F2F000F92383EA395308EBB30884EA741C8CEAD7
:10F30000F44C07EBBC1C86EA050303EA040383EA1A
:10F3100006039C4450F8043B9C4451F8043B9C4435
:10F32000E34448EA090707EA0A0708EA090347EA43
:10F330000307674488EAF82383EA385307EBB307E7
:10F340008BEA7B1C8CEAFB4C06EBBC1C85EA0403B5
:10F3500003EA0B0383EA05039C4450F8043B9C44F6
:10F3600051F8043B9C44E24447EA080606EA0906D1
:10F3700007EA080346EA0306664487EAF72383EAB6
:10F38000375306EBB3068AEA7A1C8CEAFA4C05EB93
:10F39000BC1C84EA0B0303EA0A0383EA04039C44CB
:10F3A00050F8043B9C4451F8043B9C44E14446EA39
:10F3B000070505EA080506EA070345EA030565446B
:10F3C00086EAF62383EA365305EBB30589EA791C0E
:10F3D0008CEAF94C04EBBC1C8BEA0A0303EA090330
:10F3E00083EA0B039C4450F8043B9C4451F8043BD3
:10F3F0009C44E04445EA060404EA070405EA0603DF
:10F4000044EA0304644485EAF52383EA355304EBB4
:10F41000B304013A7FF4E5AEA0F14000BEF1010E65
:10F420007FF483AEA0F1400C9CE80F00001949194D
:10F430009219DB19ACE80F009CE80F0040444944E6
:10F4400052445B44ACE80F00BDE8F08F38B50022B1
:10F45000002304460D46FDF7ADFB28B9204629469A
:10F46000BDE83840FDF7A6BC204605F10041FDF798
:10F47000A1FC404261EB410138BD2DE9F0478646D1
:10F480008C460846089E154674461946002B40F0E7
:10F49000C1808542B2FA82F245D94AB1C2F1200355
:10F4A00000FA02FC954094402EFA03F343EA0C0C58
:10F4B0004FEA154EA8B2230CBCFBFEF80EFB18CC8D
:10F4C00008FB00F943EA0C43994528D9EB1808F1E9
:10F4D000FF3704D2994502D9A8F102072B44A3EBC8
:10F4E0000903A4B2B3FBFEFC0EFB1C330CFB00F0C3
:10F4F00044EA0344A04214D92C190CF1FF3304D27E
:10F50000A04202D9ACF102032C44241A43EA07407A
:10F510001EB1D440002334607360BDE8F0874746D5
:10F52000DDE76346F1E792BB431B01214FEA154E2D
:10F53000AFB2200CB3FBFEFC0EFB1C330CFB07F838
:10F5400040EA0343984561D9EB180CF1FF3004D22F
:10F55000984502D9ACF102002B44A3EB0803A4B2F6
:10F56000B3FBFEFC0EFB1C330CFB07F744EA034421
:10F57000A7424DD92C190CF1FF3304D2A74202D96E
:10F58000ACF102032C44E41B43EA0040C0E7C2F1A3
:10F5900020039540944020FA03F12EFA03F34FEA3A
:10F5A000154E9040AFB20343B1FBFEFC0EFB1C10A6
:10F5B000190C0CFB07F841EA0041884522D969186B
:10F5C0000CF1FF3004D2884502D9ACF10200294485
:10F5D000A1EB08019BB2B1FBFEFC0EFB1C110CFB66
:10F5E00007F743EA01439F420ED9EB180CF1FF31B4
:10F5F00004D29F4202D9ACF102012B44DB1B41EA49
:10F60000004193E76046E3E76146F7E76046A4E719
:10F610006346B8E7834206D916B9002108467CE75D
:10F62000C6E900E0F9E7B3FA83F78FB9834201D363
:10F63000724508D8BEEB020460EB030301209C4630
:10F640001EB9002169E73846FAE7C6E9004CF8E739
:10F65000C7F1200CBB400EFA07F522FA0CF42EFA83
:10F660000CF1BA401C4320FA0CF3B8404FEA14499D
:10F6700001431FFA84FEB3FBF9F809FB18300B0CA9
:10F6800008FB0EFA43EA00439A4540D9E31808F113
:10F69000FF3004D29A4502D9A8F102002344A3EB1B
:10F6A0000A0389B2B3FBF9F809FB183308FB0EFE15
:10F6B00041EA03418E452CD9611808F1FF3304D289
:10F6C0008E4502D9A8F10203214443EA0040A1EB90
:10F6D0000E01A0FB02984145CE46434602D306D117
:10F6E0004D4504D20138B9EB020E68EB0403002E3D
:10F6F000A7D0B5EB0E0261EB030101FA0CFC22FA74
:10F7000007F3F9404CEA0303C6E9003199E74046A4
:10F71000C5E74346D9E710F8012B11F8013B012A50
:10F7200028BF9A42F7D0D01A7047034613F8012B2E
:10F73000002AFBD1181A01387047000000000000B1
:10F740002DE9F04F2DED028B083085B00E46914625
:10F75000DDF8508096F03DFD0446002800F09E80C4
:10F760006F4600259FED508B4FF0010B41F2A45ADC
:10F7700010AB0FCB87E80F004D4BC4E90355236056
:10F78000C4E9055503F12C024833A360494B62607C
:10F7900004F1480C0FCB84ED0E8BC4E90755C4E986
:10F7A0000C5584F8245084F840508CE80F00424BEC
:10F7B00084F858B0A4F85AA0E565236604F17803EC
:10F7C000C4E91E3304F1A003C4E928333B4B1022E3
:10F7D000C4F8D0302946C4E91955C4E9355584F830
:10F7E0006C506467C4F89850C4F8C050C4F8DC503A
:10F7F00004F1E000A5F00EFA84F8F0B0A4F8F2A04D
:10F80000C4F8F45004F1F80097F0CCF94AF6C87344
:10F81000C82284ED428B84ED448BC4E9462304F571
:10F820009873C4E94C3384F80051A4F80451C4F827
:10F83000285184F82C51C4F850513368E360736840
:10F840002361B3686361F368A3613369E36173693A
:10F850002362337E84F824302BB1D6E9070104F10A
:10F86000280383E8030030466FF0E5F8B0B9B9F13A
:10F87000000F13D0B8F1000F10D003CF3B78C4F8BD
:10F88000309084F84030012384F8283104F10803D3
:10F89000A063E163C4F8C880C4F8DC30204605B03A
:10F8A000BDEC028BBDE8F08F0000000000000000FE
:10F8B0009CD80C00487E0120C0B00B00D0B10B00DA
:10F8C0002DE9F04F2DED028B884204460D46174678
:10F8D0001E4697B00AD1034601211D202E4A17B0BB
:10F8E000BDEC028BBDE8F04F96F005BD9FED288B77
:10F8F0000DF10C092A2148460DF114080CF0B6FE52
:10F9000099E8030088E80300DFF890A0DFF890B0E2
:10F91000BDF81400BDF81630834204D117B0BDEC19
:10F92000028BBDE8F08F0CF037FF337881468DF8FD
:10F9300024408DF825508DF826708DF828300BB1B5
:10F9400073680B9309AB0893CDF81CA047F0F4FA49
:10F9500000230E938DF840308DF851302A23ADF8F6
:10F9600030904FF001090D930CAA6B4607A98DED5D
:10F97000128B8DF850908FF0C5FD034620B15A468A
:10F9800049461D2096F0B7FC404674F048FEBFE79C
:10F99000000000000000000033310D00D0B70B0064
:10F9A00073310D00000000002DE9F04F2DED028BAA
:10F9B0009FED318B9DB00DF108092A21044604AD5D
:10F9C000484616461F46DDF8A4800CF04FFE99E825
:10F9D000030085E80300DFF8A8A0DFF8A8B0BDF8B1
:10F9E0001000BDF81230834204D11DB0BDEC028B73
:10F9F000BDE8F08F0CF0D0FE289B81461B78CDE946
:10FA00000A6708948DF830301BB1289B5B788DF81D
:10FA1000313098F800308DF838301BB1D8E9022326
:10FA2000CDE9102308AB0793CDF818A047F084FA6E
:10FA300000232A228DF858308DF869300223ADF862
:10FA400048904FF00109CDE9132306A96B4612AA8D
:10FA50008DED188B8DF868908FF054FD034620B122
:10FA60005A4649461D2096F046FC284674F0D7FDBC
:10FA7000B5E700BFAFF30080000000000000000009
:10FA8000F8B70B00C8310D002DE9F04F824616463D
:10FA90001C4600259FB00391307810B9284600F02D
:10FAA00085BD731C2528069306D00399D0470028EE
:10FAB000C0F27C8501351BE21822002110A8A5F0B8
:10FAC000A9F87378252B00F0BA80002398469E464B
:10FAD0009C461846711C0F4611F8012B2B2A00F08A
:10FAE000DD8000F2D480202A00F0DB80232A00F0A1
:10FAF000DB802BB19DF8483043F040038DF848304F
:10FB0000B8F1000F05D09DF8483043F020038DF880
:10FB10004830BEF1000F05D09DF8483043F0100387
:10FB20008DF84830BCF1000F05D09DF8483043F007
:10FB300008038DF8483028B19DF8483043F004039D
:10FB40008DF848309DF8483003F04401442903D132
:10FB50006FF386138DF848309DF848302A2A43F019
:10FB600080030E978DF8483040F0A3809DF849300F
:10FB700043F001038DF849307B1C1A782E2A0CBF04
:10FB8000012100219DF8492061F341028DF84920AF
:10FB90000CD15A1C0E925A782A2A40F09A809DF86D
:10FBA0004920023342F004028DF849201A786C2A69
:10FBB00000F0BB8000F29D80682A00F0A3806A2AD2
:10FBC00000F0BC804C2A00F0C18013F8012B782A89
:10FBD00006938DF84B2000F201816D2A00F2C3805C
:10FBE000692A00F2FB80572A00F2DA80412A04D009
:10FBF000A2F14503022B00F2F18004219DF84A3066
:10FC000002F0DF02A2F1410761F302037A429DF89C
:10FC100049107A4162F3C7110A068DF84A308DF80F
:10FC20004910CBB200F1198103F07802182A40F094
:10FC300003816FF3C6038DF849300023F2E0B21C54
:10FC400006928DF84B309DF84930D90740F1078175
:10FC500054F8042B002A049208DA9DF8482042F058
:10FC600004028DF84820049A524204925A0740F147
:10FC7000FE8054F8047B002F80F2FD809DF849300F
:10FC80006FF341038DF849304FF0FF37F3E02D2A31
:10FC90000DD0302A7FF42DAF01231CE74FF0010C6B
:10FCA00019E74FF0010E16E74FF0010813E70120A6
:10FCB00011E70EA80FF00AFA0E9BBB423FF45DAFAE
:10FCC0009DF848201390C00F60F341028DF8482042
:10FCD00053E70EA80FF0FAF99DF848301490C3F3DB
:10FCE000400242EAD07262F341038DF848300E9B25
:10FCF0005CE7742A26D07A2A7FF467AF06219DF844
:10FD000049200CE05A78682A9DF8492006D1012143
:10FD100061F3C6028DF84920023356E7022161F3F0
:10FD2000C6028DF8492001334FE75A786C2A9DF8B6
:10FD3000492001D10421EBE70321F0E705219DF8DB
:10FD40004920ECE707219DF84920E8E7BDF8482065
:10FD500022F4F04222F0020242F4804242F0020217
:10FD6000ADF84820DFE76E3AD3B201229A4040F264
:10FD700082431A429DF8493037D112F0240F5FD1E7
:10FD8000D1072BD503219DF84A2003F07803A3F176
:10FD9000400061F3020243428DF84A20434141E0B2
:10FDA0000120A2F15801C9B200FA01F111F4624F29
:10FDB0007FF423AF40F6010319429DF849301AD170
:10FDC00011F4043F0AD09DF84A2060F3020203F0C8
:10FDD0007803402B8DF84A207FF42FAF9DF84830F0
:10FDE00043F001038DF8483027E702219DF84A20AF
:10FDF00061F30202EBE702209DF84A1003F078035A
:10FE000060F30201402B8DF84A1002BF9DF84810A4
:10FE100041F001018DF84810632A7FF40EAF003BDA
:10FE200018BF01239DF84820C2F340010B4363F340
:10FE300041028DF8482006E713F0380FCED1FCE6DA
:10FE400003219DF84A2013F0780F61F3020214BFDA
:10FE5000012300238DF84A20E4E70123E2E79DF91E
:10FE60004820002AACBF4FF0FF32139AFDE69F07EF
:10FE70007FF50AAF149F00239DF84A20CDE9133384
:10FE800002F00703042B9DF8493007D1980705D4E9
:10FE90009DF949100029ACBF06270D2702F0070283
:10FEA000012AC3F3C30333D1DA1E042A04D8DFE8DE
:10FEB00002F02146462121002268012B4FEAE2711F
:10FEC000CDE910211CD19DF94020D117CDE9102199
:10FED00004349DF848209107079250D0324650468E
:10FEE000069B039975F0D1FA0028C0F25F830544A0
:10FEF000069ED1E554F8042BD117CDE91021E8E78F
:10FF0000022BE5D111B242F3C032CDE91012DFE786
:10FF1000022A24D1DA1E042A04D8DFE802F01810DD
:10FF200010181800012B4FF0000154F8042B14D0C6
:10FF3000022BCDE91021CCD192B21092C9E707343F
:10FF400024F00704F4E80201CDE91001C1E754F8F8
:10FF5000042B109200221192BBE7D2B2CDE7042A03
:10FF600008D1073424F00704D4E900010834CDE9AE
:10FF70001001AEE7032AACD154F8042BDDE79DF85D
:10FF80004BB0BBF1780FB3D8BBF1570F49D8BBF1D9
:10FF9000250F00F09180BBF1240FA9D9BBF1410FCF
:10FFA00003D0ABF14503022BA2D8DDE91013002BDF
:10FFB000C0F23781079A160700F13681C2F30019A3
:10FFC0004FEA4919C3F30A50C3F31303002840F062
:10FFD0002E8151EA030614BF01260026DB0243EA04
:10FFE0005153C902BBF1460F40EA010E43EAE07CDF
:10FFF00008BF4FF0660B5EEA0C0CCDE90C1300F065
:020000040001F9
:100000009C81002E40F04A810D9BA0F2FE3843F007
:1000100000430D930020DDE90C1306464FF0050C5C
:1000200056E1ABF1580120293FF662AF01A050F82C
:1000300021F000BFC1010100F1FE0000F1FE00004F
:10004000F1FE0000F1FE0000F1FE0000F1FE0000F4
:10005000F1FE0000F1FE0000ABFF0000F1FE000029
:100060004501010059010100ABFF0000ABFF00009A
:10007000ABFF0000F1FE000059010100F1FE00009D
:10008000F1FE0000F1FE0000F1FE0000FB010100A6
:10009000C1010100C7010100F1FE0000F1FE0000F6
:1000A000BF000100F1FE0000C1010100F1FE0000EF
:1000B000F1FE0000C101010058460399F6E4002F4B
:1000C000109E3BDB39463046A5F07CF8002E3FF40D
:1000D0000FAF4FF000093718BB1B9DF84A2012F0F4
:1000E0001001059100F05782023312F04002DDF852
:1000F0004C80089218BF149A434418BF9B18049A66
:10010000CDF81C80002A40F36182D31A04939DF835
:1001100048305807C3F3800B00F15882590640F16C
:100120004882B9F1000F07D048460399D04700280C
:10013000C0F23C82D946013530233BE23046FFF71E
:10014000F4FAC6E7109B4FF000098DF85C300DF112
:100150005D07012317AEC0E7079B1A0754BFC3F31F
:1001600000194FF02B09DDE9102358BF4FEA491958
:10017000002B06DA4FF02D09524263EB4303CDE921
:100180001023DDE910010DF17503009312AA17ABDE
:100190000EF0B2FF0646002F0CDB9DF848200DF153
:1001A00075039B1B6FF386129F428DF8482001D97F
:1001B000FB1A1393002E3FF49BAE0DF175075BE025
:1001C0004FF00009DDE71098002800F0DF810DF105
:1001D00075030093002117AB12AA0EF08DFFBDF836
:1001E0004A30064603F0EF0343F4F04343F01003B4
:1001F0004FF00009ADF84A30CDE7109A072B3FF6D3
:1002000077AEDFE803F00C04060C08080C0C157040
:100210006EE615806CE6EB17C2E9005368E61560E0
:1002200066E64FF02D09CDE64FF02B09CAE640F205
:10023000FF76B0422FD1A0480BF10102D2B2825C0E
:100240000B4302F003021ED1012A0BBF492369238D
:100250004E216E210CBF462266228DF85C309DF83F
:1002600048308DF85D106FF386138DF85E208DF8A1
:1002700048300DF15F0717AEBB1BB9F1000F3FF41B
:100280002CAF013329E7012A15BF6E234E236121CC
:1002900041211A46E1E70026A0E6013849185B41F2
:1002A000002BFADACDE90C13AEE6490841EAC37136
:1002B0005B08B3F1333F404608F10108F5D200F185
:1002C000020801200CFB03FEA1FB0C13013E73444A
:1002D00018F1020FE9DB08B1CDE90C13DDE90C31AF
:1002E000B8F1000F2CDCC8F10400A0F1200C08F1DB
:1002F0001C08C34001FA08F821FA0CFCC1400BF0BD
:10030000DF0043EA0803472843EA0C0338D1F01C16
:1003100001DBB7422ADAABF10202002F5FFA82FB5F
:100320007BDD9DF84800013F820676D43A1E18BF57
:100330000122059207F101082CE04FF0000869E660
:10034000023341F100010CA808F1FF380136CDE974
:100350000C3175F06BF8DDE90C31DB1849410029EF
:1003600008F1FF38F9DACDE90C31B7E79DF84820FC
:10037000BF1B90064FD43A1E18BF0122059204E01D
:100380000022BBF1660F0592D4D117EB06084FF09F
:10039000660B44D4B8F1100FA8BF4FF010089FEDC2
:1003A000447B10208DED0E7B0B90DDE90E02B8F141
:1003B000000F37D1C01842EB0103B3F1805F41D287
:1003C000CDE90C03079BBBF1660F03F0200340F05F
:1003D000BC80002E41DC30218DF85C10002B6DD1EB
:1003E000002F40F3B4812E238DF85D3086B1734227
:1003F000BB42A8BF3B46002B1393A7EB0307D4BF18
:10040000002301239DF84A1063F345118DF84A102B
:100410000DF15E0839E00022B0E7002289E74FF0D5
:100420000008BCE7400840EAC2705208CDE90E025D
:100430000EA8CDE9083108F1FF3874F0F7FFDDE9C7
:100440000831B2E7400840EAC3705B08CDE90C030D
:100450000CA874F0EBFF0136B4E70DF15C080B99C2
:10046000002909DD0BA90CA8079374F0F7FF013EE2
:10047000079B08F8010BF2D113969BB9002F40F3AC
:1004800064812E2108F8011B0026002F1FDD0B9B25
:10049000002B1CDD0BA90CA874F0E0FF013F08F84D
:1004A000010BF2E72E2308F8013BEDE7AFF30080E4
:1004B000000000000000000871170E002E238DF8C8
:1004C0005D30002EA4D0002F91DC0DF15E08059B5D
:1004D000002B4ED1149747460BF0DF03452B23D159
:1004E000002EBABF76422D232B23632EC8BF642172
:1004F0007B70C4BFB6FBF1F301FB13664FF00A013A
:10050000C8BF03F13000B6FBF1F3D2BFBA1CFA1C2E
:10051000B87087F800B0174603F1300001FB136391
:10052000303307F8020B5370139B002B2CDC149B09
:10053000002BD4BF002301239DF84A2063F38612C9
:1005400000238DF84A203B7095E60BA90CA8079371
:1005500074F084FF079B30288DF85C0018BF06F10B
:10056000FF3613B9002F40F3F2802E238DF85D3053
:100570004EE7474617F8013C08F1FF38302BF8D01A
:100580002E2B08BF4746A7E70123D5E7714F8146C9
:1005900005237E1FA1E5110748BF0133A5E51846D5
:1005A00009930399D0470028099B05DA1FB0BDE8DD
:1005B000F08F2023DDF810B05A46002A0BF1FF3BE4
:1005C000EDDC049BCDF810B02B449D1AB9F1000F5F
:1005D00005D048460399D0470028E7DB0135089B42
:1005E000002B77D09DF94930002B28DB3346DFF80C
:1005F000689118789B4619F80020013352073FD4C0
:100600009DF84A30AE1B98065E4407D44246002A45
:1006100008F1FF383BDC079B33449E1A9BF800002F
:100620002E280AD10399D0470028BFDBB8F1000F6C
:1006300006F1010631DC0BF1010B5D4638E0B146F5
:1006400099F80000C846702809F1010913D1AE1BC2
:10065000149D46443544AB1B002B33DC3B464246DD
:100660005046039974F011FF00289FDB3044049E2C
:100670000546064464E00399D0470028E0DA95E790
:1006800005930399D0470028059BB2DA8EE7302006
:100690000399D0470028B9DA88E730200399D0477A
:1006A00008F1FF38C0E70399D0470028FFF67EAF76
:1006B0002878A84619F8003001355907F3D4A6EB7D
:1006C0000B06C5E730200399D0470028FFF66EAF30
:1006D0000136C0E79DF84A30DA0601D41B0706D57B
:1006E00030200399D0470028FFF660AF0135059B05
:1006F0003BB103999DF84B00D0470028FFF656AF59
:100700000135A84406E030200399D0470028FFF6C1
:100710004DAF0135A8EB0503002BF4DC3B46324618
:100720005046039974F0B1FE0028FFF63FAF28440D
:100730009DE720200399D0470028FFF637AF013509
:10074000731B002BF5DCFFF7D3BB1E46BFE60DF194
:100750005D08BCE6DB350D0072170E0000000000DE
:100760002DE9F047054699460024282386B088469F
:100770009246CDE9024379F04FFD284602A979F06F
:100780007CFF0746002800F0AF8083793A2B18D110
:100790000423039928460494059379F08CFD284698
:1007A00004A979F06AFF18B190F90030A34205DB83
:1007B0006FF01505284606B0BDE8F087284679F0A9
:1007C0002BFDBB79112B58D0062B58D00020AB68DD
:1007D000002B4ED19FED487B022295F838308DEDED
:1007E000007B02FB03013A23A86904311DF054FE8B
:1007F000044600287BD095F83820696B79F022FFF9
:10080000061E31DBA3682046DB68E36395F84020D1
:10081000E96B79F017FF061E26DBA06895F84010FB
:100820000C3019F0A7FDA06850F80C3F636395F8F1
:10083000381019F09FFD95F8403007F1180184F841
:10084000383095F8383084F840303B7EFF2B03D1A8
:10085000A0691BF025FF0146204607F108027AF047
:1008600071F870B16FF00406204679F05CFC3546F3
:10087000A0E71A8A5B681044AAE73020AAE73C2068
:10088000A8E741465246204679F088FF01460028F5
:10089000E8D1B8F1040F22D199FA89F342462046F3
:1008A00004A9049379F0CEFE0646204679F065FC53
:1008B0000246002ED8D12946204679F0BFFD0546D4
:1008C0000028D1D1204679F0A7FC3A2120467AF0C1
:1008D00081F820461AF038FA0028C5DB6AE70422BE
:1008E000204679F08BFDDFE76FF0040562E76FF0DB
:1008F0000B055FE7AFF30080008000000000000000
:100900002DE9F84F2DED028B7AF0E5F8002506462B
:100910000F469FED298BA846294C23788BB3D4F83A
:100920000CA0BAF1000F2CD0DAE90A3253EA020126
:1009300027D013F57A7342F10002B3EB060962EB9C
:10094000070BB9F1010F7BF1000323DB1D4844F0D5
:10095000B7FE084315D140F2E7324FEAC9334FEAF8
:10096000CB31981841EA59414FF47A724FF00003A5
:1009700041F10001FCF706FA02460B46124843F02B
:100980001BFB0135082D04F15404C6D1BDEC028BCC
:10099000BDE8F88FDAF800008AED0A8B0028F0D065
:1009A00079F0C1FBDAF8000079F0BDFB2046CAF807
:1009B000008079F06FFFE4E7000000000000000015
:1009C00074240020507D0020407D002000000000A5
:1009D0002DE9F04F2DED028B8DB09146DDE9187AAF
:1009E0001D46064688464FF0000B76F0E9FF0022D0
:1009F0000023C0F800B0CDE90423CDE90623306818
:100A000000234A464146CDE900BB75F0FBFD0028B6
:100A10001FDB9FED478B4FF0000803A88DED088B7F
:100A2000CDF8288076F08BF8306803A976F096F838
:100A30003068013008AB0093002303A91A4610F078
:100A4000A5FA041E44DA76F0BBFF0368042B1FD11D
:100A5000E3E776F0B5FF03680B2B0DD1DDE9043237
:100A600013431BD104A826F047FC002200230120D9
:100A700000217DF08FFBC2E776F0A2FF0368102B08
:100A8000ECD076F09DFF03680B2BE7D04FF0FF34DE
:100A900020460DB0BDEC028BBDE8F08F08A826F013
:100AA0002BFCDDE90AC1049B089C059AE41A099B0A
:100AB00063EB0203062C73F1000EDDE90602E5D2BA
:100AC000053C1C43D1D1914208BF8445CDD0DDE720
:100AD000306803A976F036F838B330683A680023F6
:100AE0002946CDE9008875F070FE041ED0DB19D0D0
:100AF0002B783C2B07D0062C14DD072228460E4904
:100B0000A4F03BFB70B9BAF1000F86D03B682846D1
:100B1000A3424FF0000308BF04F1FF3421462B55D8
:100B2000D0477AE73C600024B2E76FF00104AFE7FA
:100B30000A000000000000009E630D00000000009D
:100B40002DE9F04F8846D0F8201182460B6B1646EF
:100B50008FB053B10622183106F12000A4F010F82E
:100B600018B901200FB0BDE8F08F504604A9D8F89D
:100B70006050D8F88040D6F8807080F069FB00287B
:100B800052D1DDF820B0BBF1000F04D1DDF81CB06C
:100B9000BBF1000F27D042F20F71099B049A8B42E0
:100BA0000AD16FF47A63D31840F2657293428CBF16
:100BB0006FF058036FF05B034046ABEB03097EF028
:100BC0004FFCD8F88C20034608F194010AB9D8F8F4
:100BD0009020D8F850005D46CDE9009050462FF0A7
:100BE000C5F9CB46044604F59C530833BB42B8D341
:100BF000336DB3F57A6F1ADDD8F85030B3F57A6FEC
:100C0000ACBF4FF0000A4FF0010A002D12DB07F5D0
:100C10009C5308339C4200F2CB80BBF1190F00F3C8
:100C2000C7804FF0020B3AE04FF0000BDBE74FF0CC
:100C3000000AEAE7336E03EB4A03AB4215DA3846A3
:100C4000FBF7CCFC804620468946FBF7C7FC4FF0FB
:100C500033325B4BFBF73CFD02460B4640464946B0
:100C6000FBF7A8FF002840F0A38007F59C5308334A
:100C7000A342C0F09D80BBF1190F00F3998015F1DC
:100C8000550F31DB15F1500FCBDB15F14B0F2EDB80
:100C900015F1460FB4BF4FF0040B4FF0050B204683
:100CA000FBF79CFC804638468946FBF797FC0246DA
:100CB0000B46CDE902230022424BFBF709FD024619
:100CC0000B4640464946FBF793FF98B10BF10A0BE0
:100CD000BAF1000F01D0ABF1020B336E5B1B9B45E9
:100CE000CCBF002001203DE74FF0010BD7E74FF0CC
:100CF000030BD4E74FF03332DDE90201304BFBF751
:100D0000E7FC02460B4640464946FBF771FF10B12F
:100D10000BF1050BDCE728A3D3E90023DDE9020191
:100D2000FBF7D6FC02460B4640464946FBF760FF00
:100D300010B10BF1020BCBE7BC4202D90BF1010B56
:100D4000C6E700221F4B40464946FBF7C1FC02465E
:100D50000B46DDE90201FBF74BFF10B1ABF10A0BCB
:100D6000B6E74FF03332164B40464946FBF7B0FC2E
:100D700002460B46DDE90201FBF73AFF10B1ABF189
:100D8000050BA5E70CA3D3E9002340464946FBF732
:100D90009FFC02460B46DDE90201FBF729FF10B17B
:100DA000ABF1020B94E7BC4238BF0BF1FF3B8FE77E
:100DB0000020D7E6AFF300809A9999999999F13F6D
:100DC0003333F33F0000F83F10B52A21ADF5956DA0
:100DD000714898F07AFA08B113F076FC029002A9F3
:100DE0006D4898F01AFA0028F6D1029B2A2BF3D10D
:100DF00067A3D3E900236948CDE9AA23AAA9082259
:100E000098F02EFA0028E7D100220023634808A9B1
:100E1000CDE9082398F011FA0028DDD1DDE90802B8
:100E200040F6FA035E499A4208BF8842D4D10121B4
:100E30005C4898F03FFA0028CED18DF807000DF1FC
:100E40000701584898F0D7F90028C5D19DF8073018
:100E5000002BC1D0504898F05EFA0028BCD14E4813
:100E600003A998F0DAF940F2012398420446B3D17D
:100E70004D494E4898F03DFA0028ADD140224B48EC
:100E800004AB0AA998F002FA0028A5D1049B0E2B06
:100E9000A2D10F2244490AA8A3F072FE00289BD1D8
:100EA0004349424898F025FA002895D104AB4022E6
:100EB0003E480AA998F0EAF9049B18438CD19DF8A2
:100EC0002810002988D1394898F013FA002883D1D6
:100ED0004022364805AB1AA998F0D8F9A0427FF411
:100EE0007BAFF1223349344898F0BAF900287FF4F7
:100EF00073AF4FF40072304806AB2AA952F0E6F8FF
:100F000000287FF469AF069AF12A7FF465AF29497A
:100F10002AA8A3F035FE024600287FF45DAF014603
:100F2000254898F09DF900287FF456AF07AB4FF4A1
:100F300000722148AAA952F0C9F840F20123984250
:100F40007FF44AAF154898F0EEF900283FF444AF1B
:100F5000144898F0E8F900283FF43EAF164898F09E
:100F6000E2F900287FF438AF52F0CEF800287FF481
:100F700033AF0A4898F0D7F900283FF42DAF09485D
:100F800098F0D1F900287FF427AF0DF5956D10BDCD
:100F9000316EE595FA08000087DD0D000ADE0D00D0
:100FA000316EE59570DD0D00EEDC0D00ABDD0D0062
:100FB000EDDC0D00FCDB0D00F7DD0D000000000096
:100FC0002DE9F04F2DED028B9946002300240025DA
:100FD000CDB08DF8C83049938DF82831A44BCDE9B8
:100FE0002E45CDE93045CDE934450C934FF6FF74DD
:100FF0000123DFF894A2064688461746CDF8D8A00C
:10100000ADF820410D93A2B3054600F53474A54216
:1010100006D10B2420464DB0BDEC028BBDE8F08F0D
:1010200028466DF0B0FA08B19035F0E79FED8E8B51
:10103000BDF864318DF8C880ADF820318D4B4FF488
:10104000C8710E93002309A8CDE909330F93CDF899
:1010500070A00B936FF066FD099C2CBB0B240BA8B2
:101060006FF057FD0AA86FF054FD09A86FF051FD0D
:10107000D0E79BF0BBFC044608B9AC24CAE706F5F0
:10108000347528466DF096FDB4F882308DF8C8802E
:10109000ADF8203194ED028B603420212046A4F07D
:1010A00091F8CDE90C40C9E74FF4C8710AA86FF078
:1010B00039FDDDF828A0BAF1000FCFD04FF4C87188
:1010C0000BA86FF02FFD0B9A002AC7D04FF4C873FE
:1010D0004146CDE91332304610AA1094CDE9113AB9
:1010E00015939BF003FD04460028B8D141463046D5
:1010F00012AA9BF0DDFC04460028B0D141463046E0
:1011000014AA9BF08FFC04460028A8D1109B0DF177
:10111000B80A1693119B0DF1700B1793129B8DED6E
:10112000008B1893139BCDE905AB1993149B1AAA56
:101130001A93159B18A91B9336AB079330AB0493F6
:1011400034AB03930EAB029316A854F043FA044653
:10115000002884D10BA86FF0DCFC0AA86FF0D9FC42
:1011600009A86FF0D6FCB9F1000F13D1D6F86403CB
:10117000002858D003689B6898470346D6F8640354
:10118000002B48D003685A4641465B69984704469D
:1011900090B13FE7D9F8003048465B69984703684B
:1011A00059465B6A984708B9C52433E79DF8603112
:1011B000CDF824918DF82831514628469BF01DFF2B
:1011C000044600287FF426AF28460CA99BF0DBFBE1
:1011D00006F55D7495F881303FB302211120264A4F
:1011E00095F089F8D5E900122B69CDE9012100932A
:1011F0006B6902211120214A95F07DF820460F9954
:1012000056F0FCFB034630BB96F88233013386F878
:1012100082330024FEE603684146DB6898470028D5
:10122000CAD11024F6E60324F4E6D5E90012112011
:10123000CDE900210221124A95F05DF820460F9970
:1012400056F0DCFB03460028E3D0012111200D4AB3
:1012500095F051F8DDE7012111200A4A95F04BF88D
:10126000D2E700BFAFF300800000000000000000E4
:10127000511D0E00ECE90C0096EB0D00B6EB0D00D5
:10128000F5EB0D0028EC0D0040E40C000000000020
:101290002DE9F0478AB00DF10D03019315230646A1
:1012A00000934FF48072002308460C4693F0B5FF7C
:1012B000D8B9B37B012200932046002393F034FF7A
:1012C00098B9F37B022200932046002393F02CFF71
:1012D00058B90DF10E030193162303220093204603
:1012E000002393F09AFF054610B10AB0BDE8F087DD
:1012F0004FF0100906F140070DF1180810220021E7
:101300004046A3F087FC0DF10F03019315234FF422
:10131000807200932046002393F07FFF0028E4D1E1
:10132000F27BEBB29A4250D917ED0C7BC44637F8EA
:1013300028ACA7F12603A7F1160E62461868596873
:10134000083303C273459446F7D18DED007B042228
:101350000023204693F0C3FE0028C6D105220023B7
:101360002046CDF800A093F0DFFE0028BDD1404616
:10137000494606228DE8030000232046CDE9048972
:1013800094F008F80028B0D120469DF90F1093F092
:1013900072FF013530370028A7D1032DAED120468A
:1013A0009DF90E1093F067FF00289ED1F388072265
:1013B00000932046002393F0B7FE002895D12046E5
:1013C0009DF90D1093F057FF8FE782469FED027B4A
:1013D000BBE700BFAFF3008000000000000000008A
:1013E00051EC100BC1F30A532DE9F041A3F2FF3683
:1013F0000C4605468046132E2FDC002E11DA32A350
:10140000D3E90023FAF7AEFF00220023FBF7F0FB3D
:1014100020B1002C50DB254352D12C4621462846D2
:1014200024E02B4F374101EA070303431ED026A3D4
:10143000D3E90023FAF796FF00220023FBF7D8FB3D
:101440000028EBD0002C4FF00005C2BF4FF48013F2
:101450003341E41824EA0704E0E7332E0ADDB6F549
:10146000806F03D102460B46FAF77CFF41EC100B6C
:10147000BDE8F081A3F213434FF0FF37DF4038425D
:10148000F4D011A3D3E90023FAF76CFF0022002364
:10149000FBF7AEFB0028C1D0002C0ADD142E01D1D1
:1014A000013406E0C6F134060123B3401D44A845CB
:1014B000F6D825EA0705B1E700254FF00044ADE76F
:1014C0000025044CAAE700BF9C7500883CE4377EE9
:1014D000FFFF0F000000F03F51EC100BC1F30A5367
:1014E0002DE9F041A3F2FF360C4605468046132E47
:1014F00035DC002E17DA34A3D3E90023FAF732FFE4
:1015000000220023FBF774FB50B1002C56DA24F0C4
:1015100000442C430025AC422D4C08BF4FF0004442
:101520002146284624E02B4F374101EA07030343B5
:101530001ED025A3D3E90023FAF714FF00220023CD
:10154000FBF756FB0028EBD0002C4FF00005BEBF88
:101550004FF480133341E41824EA0704E0E7332E04
:101560000ADDB6F5806F03D102460B46FAF7FAFEA4
:1015700041EC100BBDE8F081A3F213434FF0FF37AD
:10158000DF400742F4D010A3D3E90023FAF7EAFEC4
:1015900000220023FBF72CFB0028C1D0002C0ADA24
:1015A000142E01D1013406E0C6F134060123B34004
:1015B0001D444545F6D325EA0705B1E700252C462D
:1015C000AEE700BFAFF300809C7500883CE4377E37
:1015D0000000F0BFFFFF0F0070B555EC104BC5F3D6
:1015E0000A5206462B4692B925F00043234339D0D0
:1015F000334B204629460022FBF76AF8314B04465C
:101600000D469E420FDA26A3D3E900231FE040F2E5
:10161000FF718A420BD1224620462946FAF7A2FEE4
:1016200004460D461EE0C1F30A520B46363A3244D8
:1016300040F2FE718A420DDD002D1BA1D1E90001AF
:1016400002DA1BA1D1E9000117A3D3E90023FBF7BC
:101650003FF8E5E7002A08DD23F0FF4323F4E00329
:1016600043EA025545EC104B70BD12F1350F08DA14
:10167000002D0BA1D1E90001C5DA0FA1D1E90001CC
:10168000C1E723F0FF433632204623F4E00343EA68
:10169000025500220C4B2946D9E700BFAFF300806A
:1016A00059F3F8C21F6EA5019C7500883CE4377E93
:1016B0009C7500883CE437FE59F3F8C21F6EA58183
:1016C00000005043B03CFFFF0000903C00000000D1
:1016D0002DE9F04F1F469DB000230C4682460F9225
:1016E00018934FF00008984B4FF000091D682846EA
:1016F000FEF71BF822468346179213782B2B3BD01C
:101700002CD80D2B26D8082B26D8002B2FD0002321
:101710000D93179E3378302B74D1737803F0DF0369
:10172000582B65D10D9B17A9884A5046019318ABD9
:101730000297009319AB60F02DFC10F007050446EA
:1017400035D0062D1AD10F9B0BB101361E604246D3
:101750004B4637E0202BDAD10132CDE72D2BD6D105
:1017600001230D93531C17935378002BD1D10F9B5A
:10177000002BECD01C60EAE70023F2E7189A3AB19C
:1017800035211AA8A4F07EF81899504660F0C4FEDE
:10179000013D199A042D06D8DFE805F0190322252A
:1017A0001900DDE91A89210701D549F000490F9B8D
:1017B00013B1179B0F9A13600D9B002BC7D04246A5
:1017C00009F1004343EC102B1DB0BDE8F08FDDE9BB
:1017D0001A8302F2334223F4801343EA0259E2E708
:1017E000DFF86C91DFE76FF000494FF0FF38DAE780
:1017F000179B5A1C17925B78302BF9D0002BD6D050
:10180000012300E00023002704930A22179BCDE95F
:1018100005770A9317980678A6F13003D9B20929FB
:1018200024D95A462946A3F0A8FC00282DD0002030
:101830003246059D83460346652A01D0452A13D1C9
:101840001DB9049A024392D00025179C621C17927E
:1018500062782B2A6ED02D2A72D04FF0000CA2F1A4
:10186000300109297AD91794002699E005990130A9
:1018700008291790D7BF069902FB073702FB0133EF
:101880000693059B01330593C4E7179B03EB0B02FB
:10189000179213F80B20059BA3B383461D46A2F1B4
:1018A0003003092B12D90123C6E7179B01305A1CBC
:1018B00017925A78302AF8D0A2F13103082B00F29F
:1018C000EF8483460020179B05460A93303A00F1C7
:1018D000010311D09B4400EB050C2B460A21634504
:1018E00012D12B180135082B054419DC06990A235F
:1018F00003FB012306930023179A1846511C1791E6
:101900005278CCE70598D5E7082B03F1010303DCF7
:10191000069E4E430696E2E7102BD8BF4F43DEE704
:101920000F2BDCBF0A2303FB0727E4E74FF0000B74
:10193000012386E74FF0000CA21C1792A2788EE7D5
:101940004FF0010CF8E700BF7CF50C0008F50C0027
:101950000000F07F179A511C17915278302AF9D065
:10196000A2F1310108293FF67FAF303A0792179A6A
:101970000C92179A561C17965278A2F1300EBEF1AF
:10198000090F38D90C99761A082E44F61F6603DC25
:1019900007998E42A8BF0E46BCF1000F00D07642D8
:1019A000002D4FD1049908437FF401AF002B7FF441
:1019B000DEAE692A29D026DC492A26D04E2A7FF4B9
:1019C000D6AE9B4917A8A3F0DBFD00283FF4CFAEAD
:1019D000179B1B78282B2FD11AAA964917A8A3F07A
:1019E000E3FD052828D11B9BDDF8688043F0FF4903
:1019F00049F4E009DBE6079E0A2101FB0621A1F17B
:101A000030020792B5E76E2AD9E78B4917A8A3F0F1
:101A1000B7FD00283FF4ABAE179B17A88749013BE1
:101A20001793A3F0ADFD10B9179B01331793DFF89F
:101A30001C924FF00008BAE6814800F04DFC59ECCA
:101A4000108BB4E6A6EB0B0306982C460C93059B73
:101A5000002B08BF2B46102D0593A8BF1024FAF7C2
:101A6000BDFD092D8046894613DC0C9B002B3FF4FD
:101A70009EAE0C9B78DD162B45DC7249424601EB8D
:101A8000C3014B46D1E90001FAF722FE80468946A0
:101A90008DE66C4B03EBC40353E91223FAF718FEEF
:101AA000804689463846FAF799FD02460B4640467D
:101AB0004946FAF757FC0F2D80468946D5DD2C1B89
:101AC0000C9B1C44002C25DC00F0A280644214F026
:101AD0000F020AD05B4B4046494603EBC203D3E9F1
:101AE0000023FAF71FFF80468946241100F09080FA
:101AF0001F2C40F3B18022234FF000084FF0000963
:101B0000CAF8003053E6C5F125030C9A934219DA5E
:101B10002C1B144414F00F030AD04A49424601EB2F
:101B2000C3014B46D1E90001FAF7D2FD8046894650
:101B300034F00F046CD0B4F59A7F41DD2223CAF84B
:101B4000003074E7C5F10F053E4C42464B4604EBAE
:101B5000C501D1E90001FAF7BBFD0C9B5D1B04EB4D
:101B6000C504D4E900238FE71633A8DBABEB0602EC
:101B7000344B4046494603EBC203D3E90023FAF74E
:101B8000D1FE83E7002306932223DFF8C0904FF0B5
:101B90000008CAF800301899504660F0BDFC06995C
:101BA000504660F0B9FC0599504660F0B5FC1099BC
:101BB000504660F0B1FC0799504660F0ADFCF6E588
:101BC00000232411404649461F4F0493012C22DC78
:101BD0000BB180468946049BA9F154791A494246C3
:101BE00001EBC3014B46D1E90001FAF771FD174B38
:101BF0000A4680460B4016498B429FD8A1F58011BA
:101C00008B4286BFDFF84C904FF0FF3802F15479D9
:101C1000002304934BE0E20704D5D7E90023FAF749
:101C200057FD0123049A6410083701320492CDE76E
:101C300015760D00F4F40C0007190E000A190E00B9
:101C4000511D0E0028AE0B0000AE0B000000F07F0F
:101C50000000A07CFFFFEF7F14F0100340464946D0
:101C6000AA4F18BF6A2304930023E20704D5D7E9DB
:101C70000023FAF72DFD0123641007F10807F4D1C2
:101C80000BB180468946049B43B1C9F30A524946C9
:101C9000C2F16B03002B4EDC6A2304930022002365
:101CA00040464946FAF77CFF00287FF424AF069BA4
:101CB0005046059A00932B460A9960F097FC1090C5
:101CC00000283FF43BAF0C9BABEB060B002BB4BFE3
