:10000000D09A0420E51D000099660000B91D00008B
:10001000B91D0000B91D0000B91D0000B91D000088
:10002000000000000000000000000000851A000031
:10003000B91D0000000000002D1A0000B91D0000CD
:10004000051B0000051B0000051B0000051B000030
:10005000051B0000051B0000051B0000051B000020
:10006000051B0000051B0000051B0000051B000010
:10007000051B0000051B0000051B0000051B000000
:10008000051B0000051B0000051B0000051B0000F0
:10009000051B0000051B0000051B0000051B0000E0
:1000A000051B0000051B0000051B0000051B0000D0
:1000B000051B0000051B0000051B0000051B0000C0
:1000C000051B0000051B0000051B0000051B0000B0
:1000D000051B0000051B0000051B0000051B0000A0
:1000E000051B0000051B0000051B0000051B000090
:1000F000051B0000051B0000051B0000051B000080
:10010000051B0000051B0000051B0000051B00006F
:10011000051B0000051B0000051B0000051B00005F
:10012000051B0000051B0000051B0000051B00004F
:10013000051B0000051B0000051B0000051B00003F
:10014000051B0000051B0000051B0000051B00002F
:04015000051B00008B
:1001540053B94AB9002908BF00281CBF4FF0FF312A
:100164004FF0FF3000F00CB8ADF1080C6DE904CE8F
:1001740000F008F8DDF804E0DDE9022304B070477C
:10018400704700BF2DE9F04786468C460846089E16
:10019400154674461946002B40F0C1808542B2FAD8
:1001A40082F245D94AB1C2F1200300FA02FC95401B
:1001B40094402EFA03F343EA0C0C4FEA154EA8B20E
:1001C400230CBCFBFEF80EFB18CC08FB00F943EA39
:1001D4000C43994528D9EB1808F1FF3704D2994507
:1001E40002D9A8F102072B44A3EB0903A4B2B3FB81
:1001F400FEFC0EFB1C330CFB00F044EA0344A0425B
:1002040014D92C190CF1FF3304D2A04202D9ACF159
:1002140002032C44241A43EA07401EB1D4400023AD
:1002240034607360BDE8F0874746DDE76346F1E775
:1002340092BB431B01214FEA154EAFB2200CB3FB16
:10024400FEFC0EFB1C330CFB07F840EA0343984505
:1002540061D9EB180CF1FF3004D2984502D9ACF106
:1002640002002B44A3EB0803A4B2B3FBFEFC0EFB79
:100274001C330CFB07F744EA0344A7424DD92C195D
:100284000CF1FF3304D2A74202D9ACF102032C448F
:10029400E41B43EA0040C0E7C2F1200395409440C8
:1002A40020FA03F12EFA03F34FEA154E9040AFB251
:1002B4000343B1FBFEFC0EFB1C10190C0CFB07F8EE
:1002C40041EA0041884522D969180CF1FF3004D273
:1002D400884502D9ACF102002944A1EB08019BB284
:1002E400B1FBFEFC0EFB1C110CFB07F743EA0143B8
:1002F4009F420ED9EB180CF1FF3104D29F4202D970
:10030400ACF102012B44DB1B41EA004193E7604658
:10031400E3E76146F7E76046A4E76346B8E783424C
:1003240006D916B9002108467CE7C6E900E0F9E7DA
:10033400B3FA83F78FB9834201D3724508D8BEEB71
:10034400020460EB030301209C461EB9002169E707
:100354003846FAE7C6E9004CF8E7C7F1200CBB4081
:100364000EFA07F522FA0CF42EFA0CF1BA401C43EB
:1003740020FA0CF3B8404FEA144901431FFA84FEF3
:10038400B3FBF9F809FB18300B0C08FB0EFA43EA2F
:1003940000439A4540D9E31808F1FF3004D29A4546
:1003A40002D9A8F102002344A3EB0A0389B2B3FBE8
:1003B400F9F809FB183308FB0EFE41EA03418E45A8
:1003C4002CD9611808F1FF3304D28E4502D9A8F163
:1003D4000203214443EA0040A1EB0E01A0FB029872
:1003E4004145CE46434602D306D14D4504D2013899
:1003F400B9EB020E68EB0403002EA7D0B5EB0E0296
:1004040061EB030101FA0CFC22FA07F3F9404CEA10
:100414000303C6E9003199E74046C5E74346D9E7F7
:10042400F0B52E4B2E4A85B0C2F80036C2F8043619
:10043400C2F80836C2F80C36C2F81036C2F81436C0
:10044400C2F81836C2F81C3602F58052C2F80036DB
:10045400C2F80436C2F80836C2F80C36C2F81036B0
:10046400C2F81436C2F81836C2F81C3600F04EF83A
:1004740001A800F0B9FE1B4B1B68834200D0FEE7C5
:100484004FF44041002002F0C3FF044600B1FEE7F0
:1004940003F098F869469DF8080005F04DFE009BAE
:1004A400039D1D44019B1E8902F09AFFAF1900F0C1
:1004B400C7FE00F0A9FE01F0C3FC84F30B8884F3AB
:1004C4000A88AB5983F3088884F31488BFF36F8FC9
:1004D400BFF36F8F7B689847FEE700BF3546526EC7
:1004E400008001504022002021B1012906D06FF084
:1004F40015007047044B53F830007047024B03EB70
:10050400C0035868704700BF689500004FF4C0519D
:10051400014803F0DBBA00BF805000202DE9F04F02
:10052400DFF8C0B1F9B038A8DDE9848916461C4665
:10053400869FDBF8005008F09AF9002138A803F0F0
:10054400D9FBB8F1000F07D0B9F1000F04DD4A461A
:10055400414638A808F08FF94FF0000833897289B2
:10056400D6F80CA013449A44C24544D80DA938A81F
:1005740008F0C5F927B1202238460DA906F0CBF8BA
:1005840000232246009331464FF6FF7307A805F077
:10059400DBFD804660BB20460C9E05F076FE86425D
:1005A40026D84FF0FF37DFF840910DF1160305AA66
:1005B40006A907A805F016FE002819DB40F08A807A
:1005C400BDF81660102E2ED1BDF81460202E0FD168
:1005D40033462046069938AA05F0E3FF40B932466F
:1005E40038A90DA805F04AFE404B1B68834217D07A
:1005F400DBF8005071E0839BAAEB0809994528BFFA
:10060400994641464B462046829A05F0CAFF002887
:10061400EED14A46829938A808F02DF9C844A3E7D8
:100624004FF00108C1E7012E35D1BDF81430202B5D
:10063400DED82046069938AA05F0B3FF07460028FD
:10064400D6D19DF814A0BAF1200F02D94FF0FF378C
:10065400ABE7D9F80030264E0393039B9F42F5DAAB
:100664001DA808F004F900211DA803F043FB7268DB
:100674001DA8126856F8081B08F0FDF815A91DA856
:1006840008F03DF9524638A915A806F034F80028B8
:100694008BD00137E1E7202E87D17B1C85D0D9F898
:1006A4000030BB42D2DDBDF81430B3F5807F9FD15A
:1006B4002046069938AA05F074FF002898D1FFB2A5
:1006C4003146BDF81430009738AA0DA800F012F88E
:1006D4000546BBE7B8F1000F8AD0284679B0BDE8DB
:1006E400F08F00BF082000207895000040220020F1
:1006F4007C9500002DE9F04FDFF8D4A1ADF54D7DD8
:10070400074629A81E469DF858B389469046DAF84C
:10071400005008F067F80422012129A803F066FAC2
:100724006C4B8CAA53F83B4003EBCB035B680494FB
:100734001B6804A81C442146302306F07AFE0028D6
:1007440040F0BE80049B8C9A13449C4240F0B880D5
:1007540021462BAA04A806F080FE002840F0B080B1
:100764000DF1B80B5A46214604A806F076FE039014
:10077400002840F0A5802BA806F066FF049A2A9072
:10078400944240F09D80039BCDF804B01A46009338
:100794002BA929A807F0E3FF002840F0918029A89D
:1007A40003F03AFA002840F08B802BA806F04CFFA7
:1007B4002A9029A808F020F8864240F08180B6F5F6
:1007C400807FDAF800507BD1B9F1200F78D141460F
:1007D4008CAA29A803F046FA0446002870D19DF893
:1007E4002F33BC2B6CD1DF2605900DF5A8790EA80C
:1007F40008F03DF800210EA803F07CFA20220DF247
:100804000F310EA808F037F8042205A90EA808F045
:1008140032F806A90EA808F072F8202EB046A8BF38
:100824004FF020089DF8173048460133424606A988
:10083400A6EB08068DF8173005F06DFF002EC144B5
:10084400D5DC54AB184600219C468CAA067812F8D5
:1008540001EB013186EA0E06DF2900F8016BF5D1C0
:100864001A7802F07F021A7013F8016B46BB013448
:10087400BE2CF9D19CF8BE30012B21D10EA807F073
:10088400F6FF31460EA803F035FA082212490EA8E5
:1008940007F0F1FF394620220EA807F0ECFF2022D2
:1008A4000DF20F210EA807F0E6FF06A90EA808F026
:1008B40026F820220DF20F3106A805F0DFFC0546CC
:1008C40029A807F09BFF28460DF54D7DBDE8F08F64
:1008D400082000207C950000689A0000034637B584
:1008E4004FF48072084693F8B840134901926200AD
:1008F40051F82250A8420ED1582101FB043201FBC9
:100904000434526A283401A900F0B8FE08B9019BE6
:10091400236003B030BD013251F82220904208D147
:10092400582101FB043201FB0433126D03F154041A
:10093400E9E70120EDE700BF8495000070B590F869
:10094400B850104E6D0056F825100446FFF7C6FF48
:1009540098B9013556F825102046FFF7BFFF054624
:1009640068B9582294F8B83002FB0343186A05F0BA
:1009740056FEC4F8B400284670BD0125FBE70925DE
:10098400F9E700BF849500002DE9F04F564B89B07C
:10099400044690F8B8000E461D68FFF7A5FD06A9A9
:1009A4008046C0B200F042FE00286FD194F8B870BF
:1009B40031463846FFF798FD4FF02C0907A9C0B21D
:1009C40009FB06F900F032FE002845D04FF0580B21
:1009D4002C220BFB07F302FB063323441B6913F0A1
:1009E400100A4ED1314694F8B80002F0F3FD0546E2
:1009F4003E4B1B68984212D14FF4807307FB0B9255
:100A04000193CDE903AA3A4BCDF808A000935046D0
:100A1400069B94F8B8102244FFF780FD05462C236A
:100A24004FF0580C73430CFB07373249E219E7596E
:100A340006988F420AD1D1681289521806D2816869
:100A44008A4203D22C4A1268AA4223D0CEB1002192
:100A5400826805F0D0FD14E0079805F0E7FD05462F
:100A6400079805F09DFD582394F8B82002FB0393E2
:100A740023445A1E033312F8011FA942A6D19A42F5
:100A8400F9D11E4B1D68069805F08AFD284609B069
:100A9400BDE8F08F94F8B820194901EBC201496808
:100AA4008845F0D10CFB02F2A1180E6A0021134410
:100AB400234407911989042307AA194405F071FDF9
:100AC4000028DED194F8B8300799012B0BBF0D4AEA
:100AD400D6E901234FF082739B18914201D39942C6
:100AE400D1D90698B3E700BF0820002000200020D9
:100AF400806800203DB8F3964022002004200020A6
:100B040084950000008800012DE9F84F884691463D
:100B14009A460026DFF88CB0234D244C0B9B9E4252
:100B240001D300200FE00B9B40469F1BB7F5806F5D
:100B340028BF4FF480671B4A3B4606EB0A0105F0C9
:100B440030FD10B10120BDE8F88F0A993B465A46A2
:100B54004846711805F03AFD0028F3D1144BC5F846
:100B640000463E44C5F80446C5F80846C5F80C4698
:100B7400C5F81046C5F81446C5F81846C5F81C460D
:100B8400C3F80046C3F80446C3F80846C3F80C4645
:100B9400C3F81046C3F81446C3F81846C3F81C46F5
:100BA400BCE700BF44420020008001503546526E2D
:100BB400009001502DE9F04F002604460D46B04642
:100BC4005827DFF8CC92DFF8CCA295B0012E84F838
:100BD400B86007D9B8F1000F00F0408100202C263E
:100BE4005827CDE0A31993F8B91000294BD107FB7E
:100BF400064309EBC6225A620AEBC6221A6530463E
:100C0400FFF772FC94F8B810C0B207FB0141203121
:100C140000F00CFD01213046FFF766FC94F8B81093
:100C2400C0B207FB01414C3100F000FD2046FFF744
:100C340085FE00BB00222046114605F028FB8346B2
:100C440090B9204605F084FB70B10AA805F04EFB6C
:100C540005F055FB064660BB94F8B830C3B90021D3
:100C640020460AAA05F013FB012294F8B830234465
:100C740083F8B02007E0012294F8B830904223446E
:100C840083F8B020D6D194F8B8600136F6B29DE767
:100C940094F8B020042A04BF012284F8B020012B68
:100CA400DDD094F8B130042BD9D1012384F8B130CC
:100CB400D5E79DF82F30012B4AD1582294F8B8304B
:100CC400CDF838B002FB0343734AD96AD86C914219
:100CD40016D094F8B80002F025FD831E022B83463B
:100CE40018D801212046FFF74FFE6C4B1B68984231
:100CF40010D06B4B1B6898420AD14FF0010B09E0EE
:100D0400998E04230EAA194405F04BFC0028E0D068
:100D14004FF0050B94F8B830234483F8B0B094F83E
:100D2400B8306BB1E21892F8B020012AABD0042A93
:100D34000CD094F8B020042A02D1012284F8B02007
:100D4400234493F8B030023B022B9CD8B0469AE778
:100D540001212046FFF718FE504B1B68984218BF2C
:100D6400052294F8B83008BF9DF82F20234483F857
:100D7400B020D4E7231893F8B92032B10130C0B2BF
:100D8400012884F8B800F5D968E093F8B08008F039
:100D9400FB08B8F1010818BF4FF001084146FFF7FE
:100DA400A3FB05A9C0B200F041FC00287CD10123BB
:100DB40006FB08F894F8B810059A17FB0181009314
:100DC400214440230EA805F0BFF9804600286DD1C8
:100DD40000230DF1120206A90EA805F003FA00285B
:100DE4003CDB05986FD1BDF812300C2B69D1069904
:100DF40007AA05F0D6FB00286ED19DF81C30012B04
:100E04006DD8E21892F8B0207B43023A022A8CBFD4
:100E14000022012206FB02332344197D9DF8202081
:100E24009142D5D80AD3597D9DF821209142CFD83B
:100E340004D3DA8ABDF822309A42C9D294F8B83081
:100E44000598234493F8B020012A1FD0023A012ABE
:100E540002D8012283F8B02005F0A2FB00264FF04F
:100E6400FF085827012E84F8B8603BD90023DFF827
:100E740034800A4E0A4F0E93012B84F8B83040F2A6
:100E84003C810E9A022A00F08B81FEE70422E1E7FE
:100E940044320020442200203DB8F3964022002032
:100EA40004200020082000200598D5E7059805F0C7
:100EB40077FBB8F1030FD1D140F20113A4F8B0309D
:100EC400CCE74FF00308059805F06AFBB8F1000F72
:100ED400EFD194F8B80051E74FF00108F3E74FF071
:100EE4000708F0E7A21992F8B930002B40F000810E
:100EF4000AA805F0FBF992F8B030042B8DF82F30D6
:100F040006D8012B06D800F0AD8082F8B080A9E0A5
:100F1400052BF8E707FB0643194630462C31DA6CFB
:100F240006F0BFF90128014640F09C8094F8B8000F
:100F3400FFF7DAFA07A9C0B200F078FB002800F046
:100F440099804FF000094FF0580B079805F028FBE3
:100F540094F8B86007A90BFB06431B6A187800F0E5
:100F640065FB9F4B0EA903EBC6030026B246187916
:100F740000F05CFB94F8B8300BFB03439B6A5345C9
:100F840019D094F8B82031460BFB0242526A0798F4
:100F940002EBCA0252680393029205F02CFB029AF8
:100FA400039B16444E45C0F0A080D4F8B460B9FB4E
:100FB400F6F906FB0966D4F8B40005F061F9582384
:100FC40094F8B82003FB0242536A926A1968013A02
:100FD40003EBC2030022D3F804E09C46724490421F
:100FE400A3F10803F7D8DCF800300798591A05F084
:100FF40002FB00232046079A0E9901960093FFF7FF
:1010040083FD78BB079802F017FB58BB4FF05809D3
:1010140094F8B800324609FB0043196A06F04FF908
:101024000146F8B994F8B8300E9809FB03431B6DD8
:101034005A6805F0E0FA94F8B83009FB0343D3E9A1
:101044001423013B52F8331002EBC30013684268C7
:10105400C91A0E9805F0CFFA079805F0A1FA0E9870
:1010640005F09EFA94F8B830234493F8B030FF2B7F
:101074003ED1FEE794F8B830079807FB03439E8EF1
:101084009B6B0EAA1E443146042305F08AFA0028FD
:101094007FF457AF94F8B830BDF8382007FB03430A
:1010A400B3F836A046F608139A42079819D1BDF84A
:1010B4003A309A457FF445AF04230EAA0AEB0601A1
:1010C40005F06FFA00287FF43CAF46F60713BDF82D
:1010D40038209A427FF435AFBDF83A90D144B144F8
:1010E40031E7BAF1000FF0D02BE70AF1010A46E725
:1010F40094F8B8600136F6B2B4E6234493F8B92004
:101104008DF81C209DF81C2002F0FF013AB10E9BC3
:1011140001330E9394F8B8300133DBB2ACE693F8A4
:10112400B030012B15D020460AAA05F0B0F880B1E2
:10113400D8F80050102200210AA805F0F7FA582622
:101144000023012B84F8B83015D9284615B0BDE822
:10115400F08F00212046FFF717FC33688342E7D164
:10116400D8F800209A42E3D03A689A42CFD1DFE718
:1011740084F8B82031E0E21892F8B9205AB906FB95
:101184000343D86C05F00CFA94F8B83006FB03431B
:10119400186A05F005FA94F8B8300133DBB2D0E7E9
:1011A40094F8B93023B194F8BA30002BE0D101237C
:1011B400582606FB034284F8B830106A04F0C2FFD4
:1011C400287194F8B83006FB03431B6A5B68AB6074
:1011D40094F8B83003FB06462E60024B1D68A9E75D
:1011E400849500004022002038B5064D0446BC22F8
:1011F4000021284605F09AFA21462846FFF7DAFC32
:1012040038BD00BF44460020BFF36F8F72B6002381
:101214004FF0FF30094A03F120010133102B42F84B
:101224002100F8D100234FF0FF30044A03F160019C
:101234000133102B42F82100F8D1704700E100E09F
:1012440038B501224FF0FF3400251A4B29465A6065
:10125400C3F84843C3F8084303F580535A60C3F8FE
:101264004843C3F80843A3F55043C3F8005580220C
:10127400C3F80843104805F059FA802229460F485C
:1012840005F054FA0E4B8022C3F800552946C3F8E2
:1012940008430C4805F04AFA802229460A4805F01A
:1012A40045FA0A4BC3F808454FF05023C3F80843E6
:1012B40038BD00BF00400150808000508081005044
:1012C40000900050809000508091005000700150B8
:1012D4002DE9F047058B04462807904611D40229CE
:1012E40005F0070540F0CD80204605F07FF878B181
:1012F4000138218B042811D8DFE800F0C3106D8574
:10130400950001290CBF45F0100545F02005258303
:1013140088F31188BFF36F8FBDE8F08701F0070AE7
:10132400AA4500F0A6800027B9463E46A368002BD4
:1013340000F0BD8041F00801218388F31188BFF3D8
:101344006F8FA168002900F0BB800D68002900F0B0
:10135400B780334652462046D1F80480C047002D5A
:1013640076D02B6829461D46F0E701F007035A1F83
:10137400012A1BD8002221F00701062B276889B215
:10138400C4E9002209D13B4603E0628B0132628347
:101394001B68002BF9D141F002012046218305F09E
:1013A40025F800287BD041F0200177E0042B0AD1F6
:1013B40021F0070189B22046218305F017F810B106
:1013C40041F020012183218B01F0070AAA4550D066
:1013D4000027B946AAE7236921F0070141F0060175
:1013E400062DD3F8009021832DD1B9F1000F40D000
:1013F40041F00801218388F31188BFF36F8F2046E1
:101404003949C84729E021F00701236941F0040163
:1014140089B2042DD3F804902183E6D000274FF03D
:10142400040A3E4682E721F00701236941F00501E1
:1014340089B2052DD3F808902183D6D000274FF028
:10144400050A3E4672E700274FF0060A3E466DE75E
:101454002B4687E7B9F1000FD1D14FF02003EFF30A
:10146400118883F31288BFF36F8F238B23F0080353
:101474002383258BEA062ED525F01003238305F05C
:1014840007056669218B002EBFF66FAF002327681E
:10149400C4E9003321F0070141F001012183218BCC
:1014A4004FF0000901F0070AAA457FF43FAF002F6F
:1014B4009BD041F00801218388F31188BFF36F8F1B
:1014C400002FC7D03D68394633465246204604F0C3
:1014D400B9FF2F46F4E7AB067FF51AAF25F02003DA
:1014E400238305F00705FFE67564000007B50DF1D9
:1014F400070007F095FA114B98421CD14FF4806213
:101504000F4B1049C3F8B8254FF40062C3F83C25CB
:101514009DF8070007F07FFA0B499DF8070007F0D4
:1015240075FA01209DF80730984002F01DFE002056
:1015340003B05DF804FB6FF00B00F9E70000AD0B9E
:1015440000A002502CA0025028A10250054B03EB2E
:101554008000D0F8003223F0E04343F04053C0F859
:101564000032704700258450012208B50A4B0B490C
:10157400C3F8002502230020C1F8D036FFF7E6FFA8
:101584001046FFF7E3FFC1F80427C1F80429C1F8A6
:10159400002B002008BD00BF001000500040005088
:1015A400052370B5144D154E2C780134B4FBF3F3B8
:1015B40003EB8303E41A05F041FE114A137823B1C7
:1015C40056F82430C01A072814D94FF05023D3F802
:1015D400141141B10021C3F81411D3F814312C7043
:1015E4000CB9012313702C7805F028FE46F824006A
:1015F400012070BD0020FCE7816900200047002025
:101604008069002048B1054B054A1B68B3FBF2F31F
:101614005843044B43F0010318477047A0200020AF
:1016240040420F006095000002F080BC70B5114B81
:101634000D461C68DCB1104B196800238B4202DB99
:101644006FF0010070BD224612F8106B864202D082
:1016540014460133F2E7E06810B96FF01200F1E7C5
:1016640007F0FCFB0028F8D000202C60EAE76FF0BC
:101674000C00E7E70C2000209895000070B588B0B6
:1016840005460C46C0B269461646FFF7CFFF002850
:101694001BDB0098C8B143682268029383680195F4
:1016A400CDE903360023CDE906230593C56804F08C
:1016B40077FF6DB12846084901AA05F0CAFB0798CF
:1016C40008B9059B236008B070BD6FF01500FAE7F8
:1016D4006FF01200F7E700BF3F660000014804F016
:1016E400DFBB00BF5C96000038B5044618B90F4B49
:1016F4000F485B6898476168B1F5683F10D0B1F551
:10170400680F0DD00B4DA9420AD011F4686120680E
:1017140007D00146084807F0FBFB002323606560FF
:1017240038BD142205F002F8F9E700BF2C2100208F
:10173400939B00002C5F5CA9144C002008B550B3A7
:101744004368B3F5683F0CD0B3F5680F16D0134A5D
:1017540093421ED000684FF0FF3103F07BFE58B176
:1017640015E001220368D3E8EF1F002903D1C3E881
:10177400E02F0028F7D10AD1002008BD0368084AE9
:101784001B7803F5807352F82330002BF4D00548FE
:10179400F3E70548F1E76FF4E040EEE72C5F5CA95E
:1017A40000000350E98FFFFFEA8FFFFF08B520B365
:1017B4004368B3F5683F09D0B3F5680F13D0114AF5
:1017C40093421DD0006803F0B9FE14E000220368C0
:1017D400D3E8EF1F012903D1C3E8E02F0028F7D194
:1017E40009D0094808BD00210368084A1B7803F59D
:1017F400807342F823100020F4E76FF4E040F1E72F
:101804000348EFE72C5F5CA9E98FFFFF000003505A
:10181400EA8FFFFF10B5044618B91C4B1C485B68DF
:1018240098476368B3F5683F2DD0B3F5680F2AD0A5
:10183400184A934217D12368F3B94FF0FF32214677
:10184400154803F053FD08B923681BB90F4B13481F
:101854005B68984714220021206804F067FF4FF466
:101864006863636008E0B3F5683F0DD83A2B03D092
:1018740040F6BA629342E0D1206807F089FB6368BE
:1018840043F03A03636010BD054AF3E72C210020BE
:10189400939B00002C5F5CA9144C0020B99B0000B2
:1018A4003A00003A08B5064940231422054807F0D7
:1018B40021FBBDE808400449044804F063BB00BFB1
:1018C40014470020144C0020649600007896000011
:1018D400014910220A60704710ED00E072B64040E2
:1018E40080F31188BFF36F8F01B5FFF759FE00280D
:1018F40002D0BFF34F8F30BFBDE8014062B6BFF3E3
:101904006F8F704772B6494081F3118801B5FFF7B4
:1019140047FE002802D0BFF34F8F20BFBDE801402F
:1019240080F3118862B6704740B2002807DB0123B8
:101934004109034A00F01F00834042F821307047F8
:1019440000E100E040B200280CDB01220649430913
:1019540000F01F008240203341F82320BFF34F8F53
:10196400BFF36F8F704700BF00E100E0054B4209F1
:1019740053F82220012300F01F0003FA00F0104066
:10198400704700BF00E100E040B2002801F101010E
:10199400ACBF00F16040064B4FEA4111C9B2ABBF86
:1019A40000F5614000F00F0080F8001319547047EF
:1019B40014ED00E030BFFFF7FDBF00BF0B4A08B5D0
:1019C4000B4B22F07F029A60BFF34F8FBFF36F8FF0
:1019D400D3F8882022F47002C3F8882003F0BCFBFB
:1019E40004F0A6F800F0F0F903F000FC0000000099
:1019F40000ED00E0094A0A4993680968D866196746
:101A040008494B6843F080534B60002383F31188EB
:101A1400BFF36F8F9368186F704700BF844E002028
:101A2400B099000000ED00E013498A684FF02800E7
:101A34001044EFF3098C80E8F01F202080F3128813
:101A4400BFF36F8F0D4F4FF000664A698A603E60A6
:101A5400D06E0023D36680F3118802F1280090E849
:101A6400F01F8CF3098802F1000004B504F019FE9C
:101A7400BDE8044070470000844E002004ED00E0FF
:101A84001EF0040F0CBFEFF30880EFF309808169A7
:101A940011F8021C0229FFD001B504F0F3FD01BDC9
:101AA40042F8203C009B0B4942F81C3C019B21F06E
:101AB400010142F8183C029B42F8081C42F8143C0D
:101AC4004FF0807342F8043C0023203A8264C366DA
:101AD400704700BFDD630000084B9860C36D83F35B
:101AE4000B88104681F30988002163B681F31188BD
:101AF400BFF36F8F0022002304F06EFC844E00209D
:101B040001B5EFF30580A0F110004FEAC0000449CD
:101B1400014409C99847BDE801400249084700004B
:101B2400C49200002D1B0000044B99685869884238
:101B340003D003494FF080520A607047844E00205E
:101B440004ED00E0154B9A6A12F0007F9A6A14BF04
:101B54001E201D2012F0807F9A6A18BF1F2012F4E5
:101B6400801F9A6A18BF022012F4002F9A6A18BFC5
:101B7400212012F4802F9A6A18BF222012F4003F09
:101B84009A6A18BF232012F4803F9A6A18BF24204F
:101B94006FEA02426FEA12429A62704700ED00E077
:101BA40010B5194B0246986A9C6A10F4805F14BF02
:101BB4001720162014F4006F9C6A18BF1820A4057F
:101BC40009D5986B986A000404D51AB19A6A22F46C
:101BD40000429A6219200C4B9A6A12F4806F9A6A36
:101BE40018BF1A20D2050CD49B6A13F4005F18BFE7
:101BF4001C20054A936A43F47F43936200230B70CD
:101C040010BD1B20F5E700BF00ED00E010B51C4B34
:101C14000246986A9C6A10F0100F14BF112010201D
:101C240014F0080F9C6A18BF1220A40709D5586B3A
:101C3400986A000604D51AB19A6A22F080029A6260
:101C440013200F4B9A6A12F0010F9A6A18BF1420DE
:101C540012F0200F9A6A18BF1520D40658BF9B6A49
:101C6400074B9A6A920642BF5A6A22F400525A6299
:101C74009A6A42F0FF029A6200230B7010BD00BF03
:101C840000ED00E070B5444B06465B6800258AB061
:101C9400C3F3080385F31188BFF36F8F02F07F400D
:101CA400B0F17F4F11D102F00C0008280DD01007BD
:101CB4004CBF0E4601250022033B8DF80720032B61
:101CC40005D8DFE803F01E5C60592E46F3E70024D4
:101CD4009DF807309BB92022314602A804F01BFD71
:101CE400099B002D53D0C3F3080222B96FEA532392
:101CF4006FEA43230993204602A904F0C1FC0AB009
:101D040070BD254BDA6A9107E1D4DA6A002ADEDB7A
:101D1400DA6A5200DBD55A69B16942F480725A61B9
:101D2400BFF34F8FBFF36F8F5A6931F8021C22F44F
:101D340080725A61BFF34F8FBFF36F8F4DF60272FB
:101D4400914209D09A6AD2B242B101200DF1070141
:101D5400FFF75CFF0446BBE73468B9E79A6A12F4FC
:101D64007F4F05D001200DF10701FFF719FFF1E7BF
:101D74009B6AB3F5803FAAD3FFF7E4FEEAE70020AD
:101D84000DF10701E4E700200DF10701EDE723F46D
:101D9400FF7323F00103ADE700ED00E0044B5A6943
:101DA40042F010025A615A6942F480625A617047E3
:101DB40000ED00E0EFF30880EFF3098101B572460E
:101DC400FFF760FF01BD00BF002320210348C218B4
:101DD4000133452B82F80013F9D1704700E100E08C
:101DE400002080F31488BFF36F8F002080F30A88EB
:101DF40080F30B88FFF718FC00200E490860BFF33E
:101E04004F8F0D4880F3088800F02CF8202080F3D1
:101E140011880A484FF40061401880F30988EFF3F1
:101E240014800221084380F31488BFF36F8FFFF7F7
:101E3400C5FD000094ED00E0D09A042090690420D0
:101E4400002318460649D1F89020C2F30722934292
:101E540000DB7047C1F89830C1F8A0000133F6E701
:101E640000ED00E010B572B6002484F31388FFF788
:101E7400E7FF23464FF0FF300C4A03F12001013302
:101E8400102B42F82100F8D100234FF0FF30074A0D
:101E940003F160010133102B42F82100F8D162B63E
:101EA400BFF34F8FBFF36F8F10BD00BF00E100E0A1
:101EB400084B9B6883420BD1EFF3058343B1064B78
:101EC4005A6842F080525A605A6A22F400425A62B6
:101ED40003F0CEBD844E002000ED00E01FB5094C98
:101EE400094A23460121094800F0EAF80023039334
:101EF400074B0121E41A01A80193029400F0EAF8C7
:101F040004B010BD000007200020002088960000C7
:101F14001822002010B50C7A0B6804F01F0223F07D
:101F24001F031A43CB68640923F01F03054943EADE
:101F3400440343F00103C1F89800C1F89C20C1F8A0
:101F4400A03010BD00ED00E02DE9F04F0F4614461F
:101F540006464FF000084E4D85B0B84580F2948097
:101F6400D6F80490B9F1000F36D0B9F11F0F40F242
:101F7400898019F01F0F40F08580D6F800A01AF070
:101F84001F0F7FD1504604F090FB834609EB0A00F3
:101F9400013804F08AFB834574D11BF1160F71D00C
:101FA4005C456FDDC5F898B0D5F89C10C5F898B0BD
:101FB400D5F8A03021F01F0143F01F0AD6E9003202
:101FC4001A44994202F1FF391ED1CA4508D131465B
:101FD4005FFA8BF004F072FB08F101080C36BCE7E1
:101FE4003146C5F898B0D5F89C3022F01F0203F0B2
:101FF4001F031343C5F89C30E0B204F05FFB10F1FB
:10200400160F3FD0441CE7E7C5F898B0D5F8A020D8
:10201400013B23F01F0302F01F021343CA4531465C
:10202400E0B2C5F8A030E8D004F048FB10F1160F78
:1020340028D0C5F898B0D5F89C209DF808300AF14E
:10204400FF3A62F304038DF80830D5F8A0309DF808
:1020540008205B0863F347128DF80820D6E90032A4
:102064001344009323F01F03411C5344A3EB0903BF
:10207400C8B223F01F030728039303D86946FFF768
:1020840049FFBFE76FF01504204605B0BDE8F08FA7
:1020940000ED00E00522044BC3F89420BFF34F8FFA
:1020A400BFF36F8F704700BF00ED00E0BFF35F8F99
:1020B4000022024BC3F89420704700BF00ED00E0FB
:1020C40010B5034C2278FFF73FFF207010BD00BF0E
:1020D400826900202DE9F74F294D8A4606464FF0C4
:1020E4000008AB46274FD0451BDAD6F80490B9F167
:1020F400000F3FD031680846019104F0D6FA0199E7
:10210400044609EB0100013804F0CFFA84424FF091
:1021140014021D4B08D002FB08F36FF015024BF8B4
:10212400032003B0BDE8F08F14F1160F2C60F8D033
:102134001978A142F5DD02FB08B0C7F89840C7F84A
:102144009840D7F89C4000F10801007B64F3040038
:102154000871D7F8A0000C79400860F347140C719B
:10216400D7F89C1021F01F016960D7F8A01021F066
:102174001F01296108F1010814350C36B3E700BFCB
:10218400304C002000ED00E08269002038B50E4D8F
:102194002C68082C15D80020FFF788FF0B4B0C4A3D
:1021A400C3F8C020844205D10A4B00201C70FFF7FD
:1021B40071FF38BD696801EB0011FFF7ABFE013018
:1021C400F0E74FF0FF30F4E79496000000ED00E0F4
:1021D400AAFF440082690020084B70B5C31A0D465B
:1021E40007499B10044659434022064804F0C3FAA9
:1021F4002B4601462046BDE870401847584C002045
:10220400B76DDBB638920000402373B50B4C0093D6
:10221400041B0B460D460A49A41061430646094AAD
:10222400094804F0D5FA011E05DA30462B4602B0FF
:10223400BDE87040184702B070BD00BF584C002084
:10224400B76DDBB641680000389200002DE9F84311
:102254000022012106460520FFF796FB114801F0F4
:1022640089FF114B984219D106F08DFC00244FF0E0
:102274001C090C27DFF834803569414609FB0450FA
:1022840004F004F9002807DB012307FB04551C4470
:10229400042CAB67F0D10020BDE8F8836FF0040094
:1022A400FAE700BFE92200000000AD0BBC96000075
:1022B40001460C2300224B4370B50848C4187833F8
:1022C4001844D4E91C56226704F042FA2DB1324670
:1022D4002B46BDE870400248184770BD584C00209A
:1022E40038920000062812D8DFE800F0040F11111C
:1022F400110D0B00064B986F10F0070007D1FFF784
:10230400D7BF0220FBE70320F9E70120F7E7704776
:10231400584C002008B54FF02003EFF3118183F3EC
:102324001288BFF36F8F124A136843F002001060E3
:10233400DA0708D481F31188BFF36F8FBDE8084032
:10234400012006F032BC4FF05023D3F80C24D3F80C
:102354000C34DB07EED5074804F0FAF981F3118851
:10236400BFF36F8FBDE808400020FFF7A1BF00BF97
:10237400F84C0020D04C00201FB500220123CDE9E9
:1023840002236B46074ACDF800D0CDF804D004F000
:102394004EFA002803DB4021684603F02FF905B00C
:1023A4005DF804FB7768000010B54FF02003EFF3ED
:1023B400118483F31288BFF36F8F074A136823F0E5
:1023C4000201DB07116002D4012006F04DFC84F306
:1023D4001188BFF36F8F10BDF84C00202DE9F04138
:1023E400012207463649D1E8EF3FC1E8E02F002833
:1023F400F9D133B9334934484B60CB608A6004F077
:1024040058F87B1E012B2BD8012F07D14FF05023F6
:10241400D3F81C3403F00303022B21D006F09EFDF5
:102424000546F8B9294B1B78E3B14FF0502302223B
:102434000646C3F808234FF05024DFF89480D4F8FC
:102444001824D4F81834D20316D503F00303022B4E
:1024540001D0012F10D16DB386F31188BFF36F8FB4
:10246400BDE8F0814FF02003EFF3118683F3128867
:10247400BFF36F8F0125DEE7C5B13046FFF742FA9F
:10248400D4F81835DBB2012BD9D1D4F80421002AB1
:10249400D5D00022C4F80421D4F804210222C4F8BF
:1024A40018252022C8F88021A360C8E7012003F082
:1024B400C3FAE5E74FF050230222C3F80423CFE721
:1024C400544C0020444C0020744C00208B690420A0
:1024D40000E100E00048704788970000024B0B6061
:1024E40001231360704700BF9097000000487047B5
:1024F400989700002DE9F7431C460B44B3F5802F51
:102504000D4617462CD800292ADB41EA040616F0AA
:10251400030625D10422FF210DEB020004F006F985
:10252400DFF8448008EB0509A64209D33A4608EBD4
:1025340005033C44A2420CD1002003B0BDE8F08363
:10254400042209EB06010DEB020004F0D4F8043672
:10255400EAE7197812F8010B014003F8011BE9E7D7
:102564006FF01500E9E700BF83690020104608B545
:102574001A460B44B3F5802F07D8002905DB044B1A
:10258400194404F0C8F8002008BD6FF01500FBE7FB
:10259400836900208B18B3F5802F70B51BD80029F0
:1025A40019DB42EA0106C6F30B06A6B90B4C21F46B
:1025B4007F6121F00F01150B0C44AE4201D10020C4
:1025C40070BD20464FF48052FF2104F0AFF801366D
:1025D40004F58054F1E76FF01500F1E783690020FA
:1025E40008B54FF48022FF21024804F09FF8002030
:1025F40008BD00BF836900204FF4802301480B60AD
:10260400704700BF83690020024B0B6001231360F5
:10261400704700BF1C4D002000487047C897000059
:1026240010B501220648114606F0B9FC06F08DFBF0
:10263400044C206006F086FB6060002010BD00BFE3
:10264400244D00201C4D002070B50C46154606F0A4
:1026540079FB29460646204604F0D6FBF8B1B4FBC4
:10266400F6F306FB1343D3B9B5FBF6F306FB13539A
:10267400ABB9AE4201D9002070BD4FF0FF3109481B
:1026840002F0BCFF06F05EFB0646204602F0C0F9ED
:10269400AD1B3444F9D1034802F08CFFEBE76FF033
:1026A4001500E9E7244D0020F8B50E4619463046DA
:1026B40017461C4604F0A8FBF8B144EA060515F0D9
:1026C40003051AD194B14FF0FF310D4802F096FF83
:1026D40024F00304A54206EB050009D1094AD2F807
:1026E4000034DB07FBD5064802F064FF0020F8BD88
:1026F400795902F0ABF90435ECE76FF01500F6E711
:10270400244D002000900350C3780F2B14D9C96BBB
:102714000B480B0E13708B0200EA911003F47C0338
:102724000906034301F0FE4110680B4305490140CB
:102734000B430020136070476FF08500704700BFA3
:1027440000FF0300FF00008030B5406801F01F0463
:10275400057BB2F5001F85B044EA451405D1204637
:1027640002F00AF8002005B030BD0025B2F5800F54
:10277400CDE9025514D1B3F1007F0CBF0423052326
:102784008DF8083000232046194602AA01F016FEEF
:10279400224B98423CD10121204601F0A1FFE1E700
:1027A400B3F1C06F27D0B3F1007F14BF012302231C
:1027B4008DF80830836823FA01F111F00101E1D1A9
:1027C400B2F1A07FDED104F01F03620903F180039C
:1027D40013D0012A1FD1124A52F82330DB07D1D477
:1027E4000DF107052946204601F024FF0D4B9842C0
:1027F40005D00395C6E70323DAE70B4AECE728463E
:1028040001F068FF054B9842F3D06FF00B00AAE784
:102814006FF01500A7E751F82330FFDE0000AD0B81
:10282400002884500400AD0B0025845010B501F03D
:1028340041FF044668B901F015FF084B98420AD1DC
:102844002146074801F0F0FE224605210D20FFF73E
:102854009BF8002010BD6FF00400FBE70000AD0BF7
:10286400692800004209034670B502D0012A17D036
:1028740070BD0D4E326951680029F9D0012503F06D
:102884001F030C689D400029F2D08A682A4002D0B8
:1028940030464B6898472CB1236821461C46F2E722
:1028A400024EE7E72346F8E7609200004C920000EE
:1028B4002DE9FF41476801F01F053B7B144645EABB
:1028C40043150E4628460DF1070101F0B3FE14F43A
:1028D400403F80460DD1284601F074FF3C4B98459B
:1028E40003D19DF8070001F0EFFE002004B0BDE81D
:1028F400F08100232846194602AACDE9023301F0EB
:102904005DFD334B984214D1804503D19DF80700F7
:1029140001F0DAFEA3034CD540F206332340B3F5AD
:10292400837F1AD00DD8062B18D005D8B3B1022B4B
:1029340032D06FF01500D9E7B3F5807FF9D10123C8
:102944000CE040F20222934228D0B3F5407F27D016
:10295400B3F5007FEDD1022300E007238DF80830A2
:1029640084F48033C3F30043E0068DF809304CBF90
:102974000323C4F3401321038DF80A3012D5012335
:102984007A68B34093600022284602A901F0CEFD84
:102994000F4B9842A9D0CCE70423DFE70523DDE7FA
:1029A4000323DBE7620341BF01237A68B340D360AA
:1029B400E9E7E3064FF000034CBF0324C4F34014DB
:1029C4001A46284602A98DF8084001F0F7FCDFE713
:1029D4000000AD0B036803F01F025B09026004D022
:1029E400012B034818BF002070470248704700BFFE
:1029F40000288450002584502DE9F04F1546824666
:102A04004FF00108DFF8789185B000EB8101514562
:102A140003D1002005B0BDE8F08FDAF8003003F0F0
:102A24007F04C3F343277F2C4FEA134308BF4FF0BF
:102A3400FF34222B00F2A180DFE803F012222A42A5
:102A44002D34429F9F9F9F45719F9F9F9F9F9F9F54
:102A54009F9F747F82859F9F9F888E9194979A00F1
:102A6400C5F80C45601C1AD003A80394FFF7B2FF05
:102A74000126039B08FA03F383604FF0010B2BE05C
:102A8400C5F81445631C0AD000264FF0000B23E060
:102A9400C5F80845E6E7621CC5F808456BD10AF19C
:102AA400040AB4E7631CC5F80C45F8D0012603A852
:102AB4000394FFF78FFF039B08FA03F3C360DCE77B
:102AC400C5F81045DEE7C5F80845002FDAD1671CC4
:102AD400E5D000260627B346DAF8003003A803F44D
:102AE4000052002A1CBF01264FF0000B01930394EF
:102AF400FFF770FF039A019B00EB8200D0F80022DD
:102B0400C3F3C1143B0243EA840343EA0B0302EA1E
:102B14000902134343EA4603C0F80032BFE7C5F88D
:102B24000C45D2E7C5F86045661CDAF80030B6D02B
:102B3400C3F38033002BB9D096E7C5F86445F3E7B7
:102B4400C5F86845F0E7C5F86C45EDE7C5F82445D8
:102B5400621CA4D0012698E7C5F8284582E7C5F889
:102B64003045F5E7C5F83445F2E7C5F83845EFE7F1
:102B7400C5F83C45ECE7002699E76FF0850049E786
:102B8400F0F0FCFFF0B504690646A56C4768236DB8
:102B940085B03DB96BBB1946306905B0BDE8F0405E
:102BA40004F0ADBA616C03BB31BB3A8F636CAA42CB
:102BB40028BF2A460091A2651BB1A36C002B18BF45
:102BC40013460193E36C02931BB1236D002B18BFD2
:102BD4001346002269463846039302F0A3F90E4BCC
:102BE400984217D06FF00401D6E79D4228BF1D46D6
:102BF400DAE71D46616CD8E701F06043B3F1005F8A
:102C0400D3D0082D28BF0825206E2A4603F083FD63
:102C1400216ECAE705B0F0BD0000AD0B2DE9F04F01
:102C24008FB001934368924602938B8880469A043E
:102C34000F46046900F124814FF0FF3104F11000C4
:102C440002F0DCFC6760D8F81090D8F804B099F86A
:102C54005D30DBF808C023B1D9F800309F4200F0A2
:102C64009280B7F804E01EF4006F40F03E811EF03D
:102C7400090F40F03781CEF34513082B40F0328121
:102C84003B680393039AAD4B9A4240F22B81AC4BC1
:102C94009C4507D94FF05022D2F8582512F0030F63
:102CA40018BF9C4604AD0BF10C060FCE0FC50FCE1A
:102CB4000FC5039B96E80300634528BF63469C4603
:102CC400A04B85E803009C451BD29D4B9C4518D224
:102CD4009D4B9C4515D29D4B9C4500F2DA809C4B44
:102CE4009C4500F2D8809B4B9C4500F2D6809A4BC1
:102CF4009C4500F2D4809949994B9A4A8C4588BFE7
:102D040013461EF0020F09930EF0040300F0C9806D
:102D1400002B14BF032302238DF82830CEF30013B5
:102D24008DF82930DBF800301EF0020FD3F8083597
:102D3400CEF340014FEA531203F01F0340F0B78073
:102D4400002A00F0B280012A40F0F2808649012274
:102D540002FA03F3CB6099F85D302BB1584602F0C8
:102D64009BF8002389F85D304B4658467F4A04A9F6
:102D740002F062F87E4B984240F0A4800123C9F827
:102D8400007089F85D30012384F85C30029B186C74
:102D9400431C01D004F01BFABAF1000F40F0A880E4
:102DA400C4F834A00023A36304F1480204F13801F9
:102DB40004F1340004F0F1F8019B6064002B40F04E
:102DC400A080E3630023236404F1500204F1400172
:102DD40004F13C0004F0E1F80023E064206823637C
:102DE40048B183683BB10121083004F0E9F8236855
:102DF400186906F02EF84046FFF7C4FE0022134679
:102E0400A06B834240F0868000231946256CA942BA
:102E140040F08780934238BF134626464FF4FA5257
:102E2400002702FB03F556F8203B4FF0800C1B688B
:102E34003946B5FBF3F540F2E730C8354FF47A7202
:102E44000023E5FB0C01FDF783F90146304602F04F
:102E5400D5FB18B9256B15F1740F35D10298A76508
:102E640002F01AF884F85D706FF07301D8F810005E
:102E740004F045F9304602F0E3FB6FF0730523E0FC
:102E8400A369002B7FF4D8AE636899427FF4D4AE73
:102E9400D9E6384B35E7384B33E7384B31E7384B15
:102EA4002FE7003B18BF012336E736494FE73AB115
:102EB400012A3FD12C49012202FA03F38B604AE72D
:102EC4003049F8E76FF0040523689B8813F4005336
:102ED40004D1636004F1100002F06CFB28460FB0CB
:102EE400BDE8F08F6FF01505EEE76FF08505EBE7B1
:102EF400DAF800306363002B3FF454AFDAF804309F
:102F040051E7019B1B68E363002B3FF45BAF019B1C
:102F14005B6858E7616B01EBC301496801330A44FC
:102F24006FE7E06B00EBC1004068013103446EE7DA
:102F3400C960FFDE00239B60FBE700BF47E8010098
:102F44000024F4000048E80100127A00FF083D0064
:102F54007F841E003F420F001FA107008FD0030093
:102F640048E8010090D00300002884503B71000021
:102F74000000AD0B00093D0080841E0040420F009C
:102F840020A107000025845000F01F0240090DD045
:102F940001280DD1094B03EB8203D3F80002084A40
:102FA400024042EA8102C3F800227047054BF2E76F
:102FB4000023803253F82230FFDE00BF0028845003
:102FC400F0F0FCFF00258450012330B585B08DF866
:102FD4000430022305460DF107008DF808300390F4
:102FE40001F078FB0C4B044698420FD1002328468D
:102FF40002AA01A901F0E2F9A0420AD09DF8070053
:1030040001F062FB6FF0040005B030BD6FF01200F8
:10301400FAE70020F8E700BF0000AD0B012383406E
:1030240070B5DC430B4AD2E8EF1F01EA0405C2E89D
:10303400E65F002EF7D14FF4803282400648C0F894
:103044000823BFF35F8FBFF36F8F0B4214BF0120C0
:10305400002070BD504D002000500150D9B1012313
:103064000D4A8340D2E8EFCF4CEA030CC2E8E1CF2B
:103074000029F7D14FF48033084A8340C2F804335F
:10308400074BD3E8AF3FC340DB0742BF4FF4001206
:10309400044BC3F800217047504D002000500150EC
:1030A4004C4D002000E100E00D4B1868010A0006B9
:1030B400BFF35F8F0B4BD3F80435181841F10001AF
:1030C400B3F5801F0AD2084BD3E90023904271EB79
:1030D400030303D210F1807041F10001704700BF77
:1030E400544D002000500150302200202DE9F04FB3
:1030F40085B016461F4604469DF840A0FFF78EFF94
:103104000190FFF7D1FFB04271EB070352D23B4B62
:10311400301A67EB0101984271F100014DD2384B2E
:1031240003EB0413D3E902239F4208BF964258D00D
:103134004FF48038334908FA04F8204626F07F4BD0
:10314400C1F8488304F06BF84FF00309584604F1C2
:103154005005AD00ADB205F1502504F5A87305F591
:1031640080350293029A20F07F4341F82230C1F85F
:103174004483D1F80435244AC01A033820F07F4030
:1031840090422ED9286868B1D1F80435A3EB0B001E
:1031940020F07F40B0F5000F039322D9204604F0BD
:1031A4003EF8039BBAF1000F07D109EB030009F1C4
:1031B4000109D7E7BAF1000F09D06FF015052046D1
:1031C4000199FFF74BFF284605B0BDE8F08F0123B6
:1031D4000E4AA340D2E8EF0F1843C2E8E10F0029DA
:1031E400F8D107490E982301C8500F9B01EB041234
:1031F4000025C2E902675360E1E700BF01008000D7
:103204001822002000500150FDFF7F004C4D00208B
:103214007FB500254FF0FF304FF0FF31194C1A4BAA
:103224000226C4F80833C4F84833184BC4F80855C8
:10323400C3E902014FF480334FF40012C4F804339D
:10324400134B0121C4F804631520C3F880212A46D6
:10325400FEF79AFB1520FEF767FB01230D4AA360D6
:10326400236013600C4B4FF48072009328460023B4
:10327400CDE90155FFF73AFF3046FFF7AFF828468E
:1032840004B070BD0050015003000F00182200204C
:1032940000E100E0504D0020A1320000F0B51849D3
:1032A40022F07F45D1E90063921B140A22F0FF0249
:1032B400921943F10003C1E90023A5F50011B1F50A
:1032C400400F85B00AD20F4909684FEA112C09064C
:1032D4004E190D494CF10007C1E900670021CDE901
:1032E40001110A4912F58072009143F10003FFF7BE
:1032F400FDFE204605B0BDE8F04002F0ABBC00BFC7
:1033040028220020544D002030220020A132000049
:103314002DE9F7432E4BD3F8042390070BD5D3F8AC
:10332400042142B10022C3F804212A4AD3F804310B
:10333400136801331360264AD2F80433D90327D51E
:10334400254BD3E8EF1F21F00100C3E8E40F002C64
:10335400F7D1CB0702D4D2F84031CBB100251C4CB5
:10336400C4F84051D4F84031FFF79EFE4FF02003DB
:10337400EFF3118283F31288BFF36F8F174BD3E9F6
:103384000267B042B94106D282F31188BFF36F8F4E
:1033940003B0BDE8F0834FF0FF38D3E900104FF0DD
:1033A400FF391D60C3E902894FF48033C4F8483300
:1033B400C4F84051D4F8403182F31188BFF36F8FC1
:1033C4000029E5D0009032463B4628468847DFE78F
:1033D40000500150544D00204C4D00201822002074
:1033E400012310B5074C15206360FEF7ABFA4FF4C8
:1033F4000012054BC4F80833C4F84833034BC3F830
:10340400802110BD0050015003000F0000E100E0D6
:1034140040EA0103C3F30D0330B58BB940F215152F
:10342400094C890BC0F38730994201D1002030BD8B
:10343400C218D2B202F5C07244F822500133F3E745
:103444006FF01500F3E700BF003000504FF0005359
:1034540018680A4B98420DD003F11C53A3F58B1343
:10346400A3F6CC53984207D0054B98420CBF0120D9
:10347400022070470020704703207047B6B3B4B5EC
:103484005DCE03F108B5FFF7E1FF30B1034805F065
:1034940075FE0022024BC3F8402408BD9C21002085
:1034A400003000502DE9F0414FF050231546012221
:1034B400C3F81426002858D0002956D04FF00053E2
:1034C40002F13642A2F14B12A2F59842C3E9002060
:1034D4004FF408429960DA60FFF7B8FF4FF47F03B6
:1034E400D3F830210646072AD3F834312DD1023BD4
:1034F400032B02D81E4AD35C3BB34FF050244FF049
:10350400010800270520C4F81886C4F8147605F0CD
:103514007BFA4046C4F8148605F076FAC4F81476AB
:10352400C4F81876FDB1134C204605F092FCFFF761
:103534008DFF8642F8D002280F4B0CD100226FF089
:103544000D00C3F84024BDE8F0814FF05023002261
:10355400C3F81426E6E74FF050220121C2F81416EE
:103564000022C3F840240020EDE76FF01500EAE7DD
:10357400959C000040420F00003000501022094B7F
:1035840010B5C3F840240022FFF78CFF044638B975
:1035940080220548114602F01DFC044805F059FC40
:1035A400204610BD003000509C21002040420F00F6
:1035B4001022034BC3F840240122FFF773BF00BF5E
:1035C400003000504FF48272014BC3F8002770475B
:1035D40000300050012803D119B9024B1868704714
:1035E400012070474022002013B50446104805F01E
:1035F40035FCB0B1002001A9FEF7FEFF0D4B0268B7
:103604009A4211D10389C16818444368B3F1807F99
:103614000AD91CB1FFF7CCFF02B010BDFFF7AEFF13
:10362400FAE76FF01200F7E76FF03C00F4E700BF31
:10363400749200003DB8F39630B5816885B01039B6
:1036440021F00704054602F0F1FF10220146684606
:1036540003F06CF810226846064903F05CF8102366
:103664006A462146284602F0B1FF003818BF0120FF
:1036740005B030BD589A000030B50D46816887B05A
:10368400102302AA1039044602F08BFF002802DA44
:10369400012007B030BD1022204602A903F034FEF9
:1036A40000283AD110221E4902A803F024F8002869
:1036B4000CBF012302232B70204603F011FE0123CB
:1036C40001460DF10702204602F06BFF0028DFDB04
:1036D4009DF80730204603F00F021B096A702B7116
:1036E40001220DF1070103F00FFE10B96B78042BD2
:1036F40003D901236B7000232B71A2682046183A6A
:1037040022F00702083AA91C03F011FE0028BFD1D9
:103714002046E91C03F027FEBBE70323CBE700BFE9
:10372400589A00007FB56946044603F0BCFD0128A1
:1037340005D1264B694653F8340003F01AFE0028DD
:1037440036D1224B02A903EBC403586803F011FEDF
:1037540001282BD103238DF808308DF80B30002479
:103764009DF800509DF80860194A2946107803F026
:10377400BDFD18B33146507803F0B8FDF0B193782D
:10378400042B03D09DF80310994217D1D378042B4E
:1037940003D09DF80B10994210D11379042B09D151
:1037A4005079831E022B03D804B070BD0028D6D0F4
:1037B400FF20F9E79DF802109942F1D00134032C5F
:1037C40002F10602D1D10120EEE700BF8898000083
:1037D4009D9C0000014B1B68184700BF9C200020E3
:1037E400014B1B68184700BF98200020024B18604B
:1037F400024B0020196070479C2000209820002074
:10380400044B1A790AB1824201D11868704708330F
:10381400F7E700BF9898000001680E4A03469142FA
:1038240015D1C169A2F11022A2F1EF1291420ED179
:103834008268012A0BD8C26812B101698A4206D093
:10384400586928B19B691B1A584258417047012096
:10385400704700BF55AA00FF70B50D4B9E68A6B116
:103864003046FFF7D9FF044678B9F3686BB9356978
:103874000DB9204670BD2846FFF7CEFF28B9EB6886
:10388400B34202D12E462D69F2E70124F1E700BFCD
:10389400584D00202DE9F8433F4F3C68D4B1BC6833
:1038A400C4B100284AD0002948D001FB00F5B5FB7B
:1038B400F0F0884242D1281D40D8A9070DD025F048
:1038C40003060436FC6803E06368B34238D2A46993
:1038D400002CF9D12046BDE8F8832E46F2E7FB60C0
:1038E40041E006F120016318203A5A600022C3E93E
:1038F40002242A4822691A6160502949D96102B117
:10390400D36062695A61A1699961AAB193619A69A4
:1039140002B153614FF0010923610023C4E9016935
:10392400C4E905333B69DB072ED5FFF795FF58B390
:103934001C4B48461B6826E0FB60E8E70024C9E707
:10394400A3681BB1174B01201B689847626804F1F8
:103954002008921B232AC4D80123A360D4E9052399
:10396400002ABCD09361A3690BB162695A61002338
:10397400C4E905333B69DA0706D5FFF76DFF18B1D3
:103984000120084B1B6898472A46002140464446BC
:1039940002F0CCFE9EE700BF584D002055AA00FF60
:1039A400669911EE9420002070B50546002800F0B9
:1039B4008880444E3368002B00F08380B268002A6C
:1039C4007FD0834203D872681344984203D33E4B9A
:1039D40001201B689847A5F120042046FFF71CFF2F
:1039E40018B1394B01201B68984755F8183C012B36
:1039F40003D0354B01201B689847002345F8183C39
:103A040055F8143C3BB39A682ABB55F81C2C02F1B8
:103A140020015A680A445A6055E905321A6155F87A
:103A2400145C2B6903B1DD6020220021204602F0E2
:103A34007DFE286910B18368002B2ED033699B0763
:103A44003FD5FFF709FF00283BD0BDE870401E4B6F
:103A540001201B68184755F8100C00282AD08368E9
:103A640043BB426863681344203363600369236182
:103A7400D4E905239AB9CBB9436963618269A26128
:103A8400B3B19C61A36903B15C61236903B1DC60D8
:103A94002022002102F04AFED0E72C46E1E79361A0
:103AA400A369002BE8D062695A61E5E7F360F7E7A0
:103AB400F460E7E7F36845F8083C03B15C61F4603F
:103AC400BCE770BD584D00209420002038B50C464A
:103AD400142200210546134802F028FE1249134817
:103AE400FFF784FE232C1CD915F003031FBF043CED
:103AF400E418C3F10403ED1822460021284602F01D
:103B040015FE084B0A49C3E90054203C9D606C60D3
:103B14009A6811609A68A1F11021A1F1EF11D161A5
:103B2400DA6038BD584D0020AD39000099380000E6
:103B340055AA00FFF8B500F1080647680446304668
:103B44000D4603F081FD87424BD16368B3F5807F56
:103B540047D80021304603F06FFE002841DD0021E4
:103B6400304603F05DFDE0B345B9294604F1140085
:103B740003F062FE002834DD0020F8BD04F12C05BA
:103B84000021284603F058FE00282ADD002128469B
:103B940003F046FD28B304F138050021284603F05C
:103BA4004BFE00281DDD0021284603F039FDC0B17D
:103BB400002104F1140003F03FFE002811DD002170
:103BC40004F1440003F038FE00280ADD002104F16A
:103BD400500003F031FE002803DD002104F15C00F5
:103BE400C6E70148C9E700BF80BFFFFF012938B518
:103BF4000546144601D0074838BD22B901230020E8
:103C0400C5E92934F8E71046FFF7FAFD0028F5D195
:103C1400F1E700BF00BFFFFF70B500210446FFF7C6
:103C240089FF054610B10E4D284670BD04F1080603
:103C3400304603F005FD7F28F5D914342946204683
:103C440003F0EEFC0028EED0204603F0F9FC012836
:103C5400E9D93146204603F0AEFD0028E4DBE2E773
:103C640000BEFFFFF0B50C4687B00021054616469E
:103C7400FFF760FF002839D103A803F029FC21468F
:103C84006A6803A803F0E6FC044618B103A803F02D
:103C940025FC0CE005F10804214603A803F08BFD84
:103CA400002807DB03A803F019FC6FF00304A4F554
:103CB400854418E005F1680303A96F68084600937A
:103CC40005F11402234604F091F804460028DDD1DE
:103CD4003A46314603A803F0D3FC044603A803F094
:103CE400FDFB002CE3D1204607B0F0BD004CFAE701
:103CF40080BFFFFF012903462DE9F04143D8234A41
:103D0400002918BF9046224A224F18BF964602F156
:103D1400794202F5740202F5016218BF94461E4A04
:103D24001E4818BF17461E4A1E4E18BF164602F1FB
:103D3400D14208BF804602F5C0121B4802F51E623C
:103D440008BF8646194D1A4818BF1546194A08BFB8
:103D54008446194C194818BF1446A2F11162A2F501
:103D64000C22A2F28E2218BF02460020C3E9028E62
:103D7400C3E90000C3E904C7C3E90665C3E908420F
:103D84009966BDE8F0816FF07300FAE7D89E05C12B
:103D940007D57C363AF54FA539590EF767E6096A17
:103DA400310BC0FF7F520E5185AE67BB8C68059BFB
:103DB40072F36E3CA78FF964ABD9831FA44FFABE8C
:103DC4002DE9F04FD1B00DF58E7B5A46031D0193BA
:103DD40000F124030393019B53F8040F42F8040FEA
:103DE40003989842F8D1DDE948074FF000094F9B4A
:103DF4004CAD0293DDE94AE30493424B06AA0593D2
:103E040095E82011B9F10F0F63D84C780B7824048E
:103E140044EA0364CB7823438C7843EA04234FEACF
:103E2400F52A8CEA0804059E8AEAB51A2C408AEA27
:103E3400756A84EA0C04544456F804AB9360544401
:103E44002344029C4FEA703A234440EA070405964F
:103E54008AEAB00A04EA0E0400EA07068AEAB05ABB
:103E64003443544409F10109DDF810A0B9F1400FBD
:103E74009A4402F10402234401F10401CDF808C07C
:103E8400CDF810E01ED1CDE90634CDE94E8CCDE954
:103E94004CA5CDE94A7ECDE94830019A52F8043F59
:103EA40001925BF8042F1344019A1360039B93421D
:103EB400F3D106A84FF4947102F0A0F8002051B099
:103EC400BDE8F08FBE46C4460746A8461846554688
:103ED40098E7136852F8384C4FEAF34A8AEA734A6F
:103EE4008AEA932A52F8143C52F8346C234452F868
:103EF400344C53444FEAB44484EAF61484EAD604B6
:103F040023448CE7B09800004FF47F03D3F83021AA
:103F1400D3F83431072A05D1023B032B02D8024AD5
:103F2400D05C704700207047B79C000008B5FFF7CD
:103F3400EBFF58B1644BD3F8202A3AB90D21C3F8EA
:103F4400201A0121C3F81C19C3F81C290022D3002C
:103F540003F57F03D3F80013013107D0D3F800131E
:103F64000132D3F80433202A0B60F0D1FFF7CCFFE1
:103F7400002840F0A080FFF7C7FF40B1534B544ADC
:103F8400C3F830254FF050230122C3F858254FF4CD
:103F94007F03D3F83021D3F83431072A09D1023B07
:103FA400032B06D84B4AD35C1BB100224A4BC3F8FF
:103FB4004C25FFF7A9FF50B14FF05023D3F800244C
:103FC400D10742BF0022C3F81421C3F818214FF4CB
:103FD4007F03D3F83021D3F83431072A09D14FF0C5
:103FE4005023D3F80024D20744BF6FF00102C3F872
:103FF4000024FFF789FF18B16522334BC3F80C275F
:104004004FF47F03D3F83021D3F83431072A16D183
:10401400314BD3F82034002B11DA4FF05023032214
:10402400C3F8182501229A60D3F80421002AFBD092
:104034000022C3F804210122DA60C3F818254FF4E2
:104044007F03D3F83021D3F83431072A23D1023B3C
:10405400032B02D8214AD35CEBB17E221A4B1B49B5
:10406400C3F80C27C3F83C297F231D4AC2F8183132
:104074000023C1F8043EC1F8083E01F54821C1F807
:104084001031C2F82431C2F82C3102F5FF1202F5C6
:104094008052C2F8A032134AD2F88C3043F4406301
:1040A400C2F88C30104A114B1168C3F84415D26918
:1040B400C3F84C2508BD2922034BC3F80C2703225F
:1040C400C3F83C2757E700BF00400050009003505E
:1040D4004400EFBEB39C000000200350AF9C0000DE
:1040E4000020005000ED00E00080FF000060005060
:1040F40030B50468ACB1B4FA84F30122C3F11F03F0
:10410400DBB29A4024EA0202D0E8EF5FA54204D170
:10411400C0E8EC2FBCF1000FF6D1EAD102480B70D5
:1041240030BD0248FCE700BF0000AD0B0200AD0B40
:1041340010B50368CB40DB0710D401238B40026821
:1041440043EA0201D0E8EF4F944204D1C0E8EC1FE7
:10415400BCF1000FF6D1F2D1014810BD0148FCE7D3
:104164000000AD0B0400AD0B014BC3F80405704710
:1041740000700150044B1A7922B9012218601A7197
:1041840002487047024870476C4D00200000AD0B98
:104194000C00AD0B4FF0502310B5D3F8002152B1F1
:1041A4000020C3F80001D3F800210122C3F808233A
:1041B400234B1B6898474FF05023D3F8042182B156
:1041C4000022C3F80421D3F80421D3F81824D3F827
:1041D4001824022102F00302012A28D1C3F8181579
:1041E4009A604FF05023D3F8202162B10022C3F823
:1041F4002021D3F820214FF48072C3F80823104BF8
:1042040005201B6898474FF05023D3F82421AAB106
:104214000022C3F82421D3F824214FF40072C3F8F8
:104224000823074B0620BDE810401B681847C3F855
:104234000813034B01201B689847D2E710BD00BF49
:104244006C4D002001460148FFF752BFA420002016
:10425400036803F01F025B09026004D0012B0348CA
:1042640018BF002070470248704700BF00288450E0
:1042740000258450034A4309D35C00F01F0018440E
:10428400C0B27047D09C000008B5FFF7F3FF034BA2
:10429400083033F81000C0F3401008BDA8200020F7
:1042A40008B5FFF7E7FF034B083033F81000C0F3FD
:1042B400400008BDA820002008B5FFF7DBFF034B32
:1042C400083033F81000400B08BD00BFA8200020C0
:1042D40070B50546FFF7CEFF0C4C083034F81030AB
:1042E4000E46DA0508D5C3F3432304EBC30228467C
:1042F40054F8333052689847A3682BB131462846A6
:10430400E268BDE87040184770BD00BFA8200020D7
:1043140010B5FFF7AFFF124A083032F81030D90554
:104324001CD5C3F3432123F4F85322F810300020A2
:1043340002F10E0434F8023F13F4807F03D0C3F378
:10434400432399420AD001303028F3D1002342F8A4
:1043540031300448BDE81040FFF7EABE10BD00BF8D
:10436400A82000201C21002001460020F0B50125D2
:1043740006460F4A0F4C02F13043A3F551439B0804
:1043840005FA03F3194204D0176817B116601768C9
:1043940018430432A242EED1074BD3F87C2132B148
:1043A4000022C3F87C21D3F87C3140F00040F0BDFA
:1043B40000D1005020D1005000D000502DE9FF4121
:1043C400054690461E46FFF755FF044609B32846A6
:1043D400FFF766FF18B12846FFF756FF28BB0023F6
:1043E4000DF10F02CDE900338DF80E308DF80F304A
:1043F40028460B460DF10E0104F038FC474A04F13F
:10440400080132F8113023F0020343F0010322F8CB
:104414001130B8F1000F32D0284698F80070D8F85F
:104424000410FFF73DFF10B1F1B13D4829E03B48CE
:1044340004F1080C30F81C3023F02003DB04DB0CFF
:1044440020F81C3081B1032FEFD8D8F8042092F85B
:1044540000E07246920002F1A04202F550429FB978
:10446400C2F81075C2F810752C4A04F1080132F82C
:10447400113023F01C0343EA870322F811301EBBDA
:10448400284804B0BDE8F081D2F8101543EA4E3351
:1044940021F00301C2F81015D2F8101543F02003DF
:1044A40021F44F3121F44071C2F81015D2F810856F
:1044B400290201F47C5141EA080141EA0741C2F8AA
:1044C400101520F81C30CFE72846D6E90076FFF710
:1044D4001FFF002FD4D0114DD5E90023974201D1FD
:1044E4009E4218D010480DF10F01FFF701FE0D4B4D
:1044F4009842C6D19DF80F2005EBC20308345E60D4
:1045040035F8143045F8327043EA422343F480739B
:1045140025F81430B4E70022EEE700BFA8200020FD
:104524000400AD0B0000AD0B1C2100202DE9FF4160
:1045340004461646FFF79EFE054631B32046FFF7B4
:10454400AFFE20B92046FFF79FFE002863D1334F0A
:1045540005F1080837F8183013F01C0F02D04B7817
:10456400012B58D001238DF80F3000234A1CCDE9CC
:10457400001320468B1C0DF10F0104F077FB37F874
:10458400183043F0030327F818301EB9244804B048
:10459400BDE8F0812046FFF783FE00283BD096F863
:1045A40000C0002361461D4F05F1080037F8105084
:1045B400890025F0200501F1A041ED0401F55041E9
:1045C400ED0CC1F8103527F81050C1F81035727889
:1045D400002ADBD0D1F81035B67823F4991323F4EC
:1045E400F853C1F8103512042302D1F810E502F48F
:1045F400403203F47C531343320543EA0E0302F4BE
:10460400801245EA4C35134345F02005C1F81035B6
:1046140027F81050BAE70348B9E700BFA8200020E4
:104624000000AD0B0400AD0B014BC3E90201704760
:10463400A820002010B50446FFF726FE50B12046FE
:10464400FFF718FE044B083033F8103003485B0BB7
:104654000B7010BD0248FCE7A82000200000AD0B41
:104664000400AD0B70B50F4C94F87860BEB90E4DD4
:104674006022314604F1100002F058F80D20C5F80C
:104684007C61D5F87C31FDF74FF94FF00043C5F854
:1046940004330123054884F87830636770BD044807
:1046A400FCE700BFA820002000D000500000AD0BA4
:1046B4000500AD0B034B93F87800003818BF0120B8
:1046C400704700BFA820002001460148FFF730BD15
:1046D4001821002001460148FFF70ABD18210020D7
:1046E40037B50446FFF7D0FD08B32046FFF7D8FDE1
:1046F4000546E0B92046FFF7DFFD03B29B0003F156
:10470400A04202F5514203F1A043156003F5504362
:104714001268D3F8102542F00102C3F8102521B124
:104724000123134A8340C2F8043303B030BD20464A
:10473400FFF7A0FD0F4B083033F81030C3F38203AA
:10474400042B11D0052B11D001A80194FFF780FD93
:10475400019B0169D94001F001010231204603B0F7
:10476400BDE8304004F0CBBA0321F7E70221F5E7B6
:1047740000D00050A820002010B50446FFF784FDA7
:10478400C0B12046FFF78CFDA0B92046FFF794FD89
:1047940001230B4A8340C2F8083303B29B0003F1A0
:1047A400A04303F55043D3F8102522F00302C3F8C5
:1047B400102510BD2046BDE81040002104F09FBA2A
:1047C40000D0005073B50446FFF754FD1A4E00F1B3
:1047D400080536F81530DB072CD52046FFF7CCFF4B
:1047E4002046FFF751FD68B12046FFF765FD002222
:1047F40003B29B0003F1A04303F55043C3F8102513
:10480400C3F810252046FFF783FD002301A826F8EE
:1048140015300194FFF71CFD019B00EB8300D0F8D9
:104824000022064B134043F00203C0F80032044850
:1048340002B070BD0348FBE7A8200020F0F0FCFFA5
:104844000000AD0B0400AD0B2DE9F04F604B87B0B9
:10485400D3F80403C0B240F00040FFF785FD051E05
:1048640080F29980DFF86C91D9F820300493C9F86C
:104874002030594B1A6A05921A624FF0000A0DF162
:104884001008564B0AEB030B4CE093FAA3F3B3FA6C
:1048940083F39BF80040019343EA44142046FFF756
:1048A400E9FC4F4B083033F810700120019B03944E
:1048B400DA0803F00703984018F80230B90823EA2D
:1048C400000308F8023003A8FFF7C2FC039BC7F3F8
:1048D4008206803350F823304A073746C3F3014336
:1048E4002CD520463946DEB2FFF7F2FC03A8039428
:1048F400FFF7AEFC039B803350F82330C3F301432E
:104904009E4207D10021204604F0F9F931462046A1
:1049140004F0F5F903A80394FFF79AFC0123039A22
:1049240093400362D8F80030002BAED108F104089C
:10493400BAF1000F1DD14FF0010AA2E7022B0CD1EE
:104944000321204604F0DBF906F00503012BE1D135
:1049540039462046FFF7BCFCDCE7022120460193E0
:1049640004F0CDF9032EF3D0019B032BD2D1022EF8
:10497400EDE74FF00040FFF7F7FCD9F82030164977
:104984000493C9F820300A6A134305920A627FF43B
:1049940074AF25F00045012415B907B0BDE8F08FC8
:1049A40095FAA5F3B3FA83F304FA03F29B0003F137
:1049B400A04303F55043D3F81005D3F81015C0F302
:1049C4000520C1F3014125EA0205FFF781FCE3E775
:1049D40000D000500025845000288450E09C000042
:1049E400A82000200022034BC3F88425C3F8042523
:1049F400704700BF00900350044AD2F80034DB072C
:104A0400FBD50160BFF35F8F704700BF0090035078
:104A140008B5C0F30B0383B90222094BC3F88425FC
:104A2400C3F804254FF0FF320260D3F80024D20704
:104A3400FBD5FFF7D7FF034808BD0348FCE700BFD9
:104A4400009003500000AD0B0A00AD0B012208B525
:104A5400054BC3F88425C3F80425FFF7CDFFBDE853
:104A64000840FFF7BFBF00BF00900350036803F086
:104A74001F025B09026004D0012B034818BF002009
:104A840070470248704700BF0028845000258450B6
:104A94004B69284A934247D00FD8274A934243D0C0
:104AA40009D8264A93423FD02549264A26488B42B4
:104AB40018BF104670472549F7E7254A934233D07B
:104AC40004D8244A93422FD02349EEE7234A934241
:104AD4002CD191F823301BBB0268214B9A4223D17D
:104AE4000B685A1C01D0082B20D14B68581C01D0EC
:104AF400092B1BD18B685A1C01D00A2B16D191F8B3
:104B0400213023B1CB68581C01D00B2B0ED1CB69BB
:104B14000D485A1C0CD00B4A0C2B18BF104670477A
:104B240091F82430002BD7D00748704705487047C8
:104B3400704700BF80841E0020A1070048E80100E0
:104B440090D003000400AD0B0000AD0B40420F00F9
:104B54000024F40000093D0000127A000048E80136
:104B640000A0005073B51646421C1C460546069B21
:104B740018D0012902D1BBB104F03DF901A8019577
:104B8400FFF774FF019B240200EB8300D0F800229E
:104B9400074B44EA86040C4313401C4344EA410196
:104BA400C0F8001202B070BD04F031F9E6E700BFAE
:104BB400F0F0FCFF2DE9F04F8A4B4D6906469D420B
:104BC4000C4690F804A087B000F0E58000F2D58090
:104BD400854B9D4200F0E28000F2C780834B9D42EA
:104BE40000F0DF80824B9D420CBF4FF080654FF098
:104BF400804524227F4F94F8230002FB0A73997F97
:104C040060F3000199773379217C02FB0373D97730
:104C140094F82380B8F1000F34D16269764B0121F6
:104C24009A420CBF4FF003094FF00009237E42461D
:104C3400012B94BF00230123009320684B46FFF708
:104C440091FFCDF800804B46424601216068FFF792
:104C540089FFCDF800804B464146A27EA068FFF74D
:104C640081FF237C424683F00103009301214B46DC
:104C7400E068FFF777FF012100914B464246E06967
:104C8400FFF770FF94F821302422002B00F092806B
:104C94004FF0FF3102FB0A721162627E94F8211018
:104CA40094F8129094F818C0E0690492002900F076
:104CB4008A80E16894F810E094F822B094F820A077
:104CC400CDF814E0002B40F0818010F1010818BFEA
:104CD4004FF0010894F824E03368BEF1000F0CD1C2
:104CE400226802926268A4680392029AC3F80825B3
:104CF400039AC3F80C25C3F81045049AC3F8C09569
:104D0400003A18BF0122BCF1020FC3F8245560D049
:104D1400BCF1030F60D0BCF1010F01D142F00202DB
:104D2400C3F85425B8F1000F11D0BEF1000F0CD117
:104D3400441C18BFC3F86C054A1C1FBF059AC3F86E
:104D44001415C3F86825C3F864B5C3F860A5242214
:104D540033795343FB58002B41D0306840F307307C
:104D640007B0BDE8F04FFCF7DFBD244B9D420CBFFC
:104D74004FF080554FF080453BE7214B9D4213D0C7
:104D84001D4B9D4213D01F4B9D420CBF4FF000455D
:104D94004FF080452DE74FF000552AE74FF00065AE
:104DA40027E74FF0007524E74FF0206521E74FF027
:104DB400A0551EE702FB0A7AE168CAF82010227C9B
:104DC4008AF81F2069E74FF0FF3173E74FF00108BD
:104DD40080E742F00402A3E742F00602A0E707B02E
:104DE400BDE8F08F80841E0020A1070048E8010080
:104DF40090D00300744D00200048E80140420F00A9
:104E04000024F40000127A00431C07B50ED0019070
:104E140001A8FFF72BFE019B00EB8300D0F80022D2
:104E2400044B134043F00203C0F8003203B05DF8B2
:104E340004FB00BFF0F0FCFF2DE9F041242790F8BB
:104E44000480124C07FB08F704EB070C9CF81CE0E9
:104E540005460E46BEF1000F16D1E251CCF80430DF
:104E640041B1FFF715FE0A4B98420BD13146284653
:104E7400FFF7A0FE242303FB0844002363770123E8
:104E840003482377BDE8F0810248FBE7744D002016
:104E94000000AD0B0500AD0B2DE9F0410446067989
:104EA40000681E4D40F30730FCF74CFD2423734388
:104EB400EB5853B123681A4A06EBC601C3F808231A
:104EC400206805EB810103F0AEFF242101FB0651AC
:104ED4002368D3F80805D3F80C75D3F810858B7FB5
:104EE400DB0714D4FFF790FF4046FFF78DFF3846E9
:104EF400FFF78AFF086AFFF787FF2368D3F86C057A
:104F0400D3F81415FFF780FF0846FFF77DFF24232D
:104F140003FB065500232B77BDE8F081744D002078
:104F24005201080024232DE9F0430779524D7B43B5
:104F34009046EA180E46517F814685B0002940F01C
:104F44009880EB5823B118F0140F04BF0123537752
:104F5400242496E80F0004FB075404F10C0C8CE89D
:104F64000F00206A431C03D0E37FD3B103F043FF57
:104F74003368D9F8004023B103F06043B3F1005F14
:104F840006D1B36883B103F06043B3F1005F0BD083
:104F94002423002203FB075338485A7705B0BDE8A1
:104FA400F08303F034FFE3E718F0010318BF012393
:104FB400C4F8503518F0020318BF0123EC46C4F8B6
:104FC400403596E80F008CE80F00039BC4F84405B5
:104FD400C4F84815C4F83425C4F838350023C4F897
:104FE4001831D4F818310723C4F8003524237B433F
:104FF40018F0080F05EB03021DD10121E8582161C7
:1050040058B9D4F81831002BFBD062464021204611
:1050140003F0B3FE24237B43EA18EB5803BB106A66
:10502400411C12D107EBC707204605EB870103F0AB
:10503400FAFE1348B2E7EB5893B9106A431CF8D050
:10504400D37F53B103F0E3FEF3E7D37F13B103F04F
:10505400DEFEE7E703F0CFFEE4E703F0CCFEE8E78B
:10506400402318F0040F14BFC4F80833C4F8043301
:10507400DFE7044892E700BF744D00200A00AD0B3F
:105084000000AD0B0B00AD0B10B540210F4A1048CA
:1050940003F073FEC0B10F4C206A431C03D0E37FBE
:1050A4007BB103F0B4FE637F1BB10A49084803F0E7
:1050B400BAFE002323720848D4E90031BDE8104049
:1050C400184703F098FEEEE710BD00BF804D0020A6
:1050D40000A00050744D00207C4D0020104B70B592
:1050E40053F82040013053F82060A64200D870BD28
:1050F400D4E9003595B153B12846984738B1002812
:10510400B8BF4042FF28A8BFFF20EB681870EA68C8
:10511400537843F0010353700834E6E79847FBE7FC
:10512400B4990000012208B5094B03201A70FFF757
:10513400D5FF04F040F80420FFF7D0FF00F030F969
:10514400FBF76EF9034A137B23F00103137308BDC5
:105154008B6904200C4E002008B50348034A002143
:10516400121A03F0ADFE08BD182200208C69042039
:10517400742370B5174E012203FB0066002386B02A
:10518400CDE904230F220193CDE9023214234FF415
:10519400A0720446104D114903FB005502FB001197
:1051A4000F4B3046009500F0CBF8737B2C7423F042
:1051B400040373730B4B013403EBC4236B600A4B7E
:1051C400EE60D3E8EF1F0131C3E8E21F002AF8D1F3
:1051D40006B070BD984D0020844E002090710420CC
:1051E4006D8F000090690420804E002080B500205F
:1051F400A4B0FFF773FF2D4B03F5006282F3088818
:1052040083F30A880024E023294D2A4E85F82230AE
:10521400EC772C766C76AC7685F820406B6A264F5A
:1052240043F4E0236B6285F82340FCF7B7FDFCF7F9
:105234004FFB4FF0FF33AB62EB62FCF7A7FFFCF7C9
:105244004DFE40F20113ADF8283007ABB360CDE951
:105254001E44219403F001FE0120FFF73FFF0220CA
:10526400164DFFF73BFF00F06FFB154B756105937F
:10527400012314494FF42052CDE9034328463B4609
:10528400CDE90144009400F05BF806466A7B2846A9
:1052940022F004026A7303F0C8FE2046FFF768FF99
:1052A4003A4631462846FCF717FC00BF90690420B3
:1052B40000ED00E0844E0020295100000C4E002037
:1052C400019D0000D0720420002038B5054C064D25
:1052D400AC4200D338BD204603F0F6FD0028F9DBCC
:1052E4001C34F5E7C8210020C821002010B513465E
:1052F4000C464FF02002EFF3118182F31288BFF3C2
:105304006F8F42695AB12260136843618369013324
:105314008361002081F31188BFF36F8F0DE01BB907
:105324006FF00B002360F5E70246083000F01CFA2A
:1053340018B9024B9B685B69236010BD844E002042
:105344002DE9FF410E9E00F1500506730426C0E9C5
:1053540014550025044646730D9EC0E90655867310
:10536400D61D0C9A26F00706C0E917168560C5738A
:10537400456602920B9A01EB060801920A9A009282
:105384004246FCF78DFB054BE5649B6803B19B6EBD
:105394004046A36604B0BDE8F08100BF844E0020FF
:1053A4002DE9F043284C294D87B02646AE4204F13E
:1053B4002C040ED300F098FA802640F2E737224CF2
:1053C400DFF88C90AC4220D307B0BDE8F04300F086
:1053D4009FBA54F8043C059354F80C3C049354F8D5
:1053E400103C039354F8143C029354F8183C019372
:1053F40054F81C3C009354E9092354E90B01FFF7CA
:105404009FFF54F82C3CDE64CFE7606A431C12D043
:105414000021BC4620EAE070C0FB06C14FF47A725A
:1054240000236046FAF794FED4F80080024620B9BF
:10543400404600F009FA2C34C4E7494608F1180044
:1054440000F0C6FBF7E700BFEC940000EC9400000A
:10545400B7900000F8B504460E464FF02003EFF372
:10546400118783F31288BFF36F8FC368314A5BB12E
:1054740080689168884215D0B6B987F31188BFF364
:105484006F8F6FF00F00F8BD916891F90E10013322
:10549400E36093682161A36087F31188BFF36F8F82
:1054A4000020F0E72169F2E791F90E1090F90E302F
:1054B4006FF07E029942A8BF19469142B8BF1146C7
:1054C4008B422DDD03F05CFD05463346224639460A
:1054D400194800F049F90028E2D04FF02003EFF317
:1054E400118683F31288BFF36F8FA068D0B123684D
:1054F40021699C420AD04BB193F90E309942A8BF5E
:1055040019466FF07E039942B8BF194603F038FD7F
:1055140040B13146084800F085F96FF00A00B2E75F
:105524000025D2E7002DF4D186F31188BFF36F8FE5
:10553400F3E700BF844E00208C69042038B58368EB
:1055440004466BB3194A926893422CD1C368012B69
:1055540003D9013BC360002038BD4FF02003EFF3B3
:10556400118583F31288BFF36F8F0169806803F09C
:1055740007FD204603F0B8FDA06058B190F90E2055
:1055840022610022026703F050FD2946084800F01A
:1055940049F9E0E7E06085F31188BFF36F8FDAE73C
:1055A4006FF01500D8E74FF0FF30D5E7844E0020A8
:1055B4008C69042038B504464FF02003EFF31185BD
:1055C40083F31288BFF36F8F03F08EFD48B100227E
:1055D400026703F02AFD2946BDE83840064800F07A
:1055E40021B9D4E902329A4218BF0133A36085F38A
:1055F4001188BFF36F8F38BD8C69042002460B46B7
:105604004FF02000EFF3118180F31288BFF36F8F06
:10561400906838B10138906081F31188BFF36F8FBF
:105624000020704733B981F31188BFF36F8F6FF097
:105634000F007047014800F097B800BF8C69042040
:1056440070B504464FF02003EFF3118583F31288FD
:10565400BFF36F8F6FF00A06204603F045FD18B1C3
:10566400066703F0E2FCF7E7A0602946BDE8704056
:10567400014800F0D7B800BF8C6904200A4A1146DB
:1056840051F8183F8B4200D003B9D36848B99168E8
:10569400487BC00605D1986918B9C8897F2888BF96
:1056A4000B465361704700BF844E002008B590F943
:1056B4000D200146002A437B04DA03F07F03437381
:1056C40003F079FC044B9868431A58425841BDE8EA
:1056D4000840FFF7D3BF00BF844E002038B51446FE
:1056E400054603F07AFC631C07D0224605F1180036
:1056F4000249BDE8384000F06BBA38BDB7900000ED
:1057040070B490F90D30427B002B29DBD30627D1EE
:1057140083692BBB134962F07F0242730A4652F835
:10572400184F944218BF2346CC6923B9C0E900241A
:105734002060C8610CE090F90E5093F90E60B542F8
:105744000AD0AE4208DD5A68C0E9003210605860E1
:10575400002070BCFFF792BF9C42E7D01B68E4E7CF
:1057640070BC7047844E002010B50C4611461A4692
:105774004FF02000EFF3118380F31288BFF36F8F93
:10578400044B9868FFF7AAFF2046BDE81040FCF7D9
:1057940031B900BF844E0020F8B504464FF0200311
:1057A400EFF3118683F31288BFF36F8F437B49B203
:1057B400DA0619D18569BDB903F07F03437303F099
:1057C400FAFB437B164A63F07F03437313468173EA
:1057D40053F8180F984218BF0546D0695DB9C4E95B
:1057E40000300460D46111E00020A17386F31188B5
:1057F400BFF36F8FF8BD95F90E70B9420BD08F428D
:1058040009DD6B68C4E900531C606C600120FFF77C
:1058140035FF0120EAE7A842E1D02D68DEE700BFAA
:10582400844E002049B9EFF3058030B9054B5A691D
:105834009B689A4201D0FCF7DDB881F31188BFF36D
:105844006F8F7047844E002010B54FF02002EFF3A5
:10585400118482F31288BFF36F8F427B510704D403
:1058640084F31188BFF36F8F10BD22F004024273DA
:10587400FFF746FF2146BDE810400148FFF7D2BFBD
:105884008C69042070B50446183003F05FFC4FF0B7
:105894002003EFF3118683F31288BFF36F8F94F91B
:1058A4000D20637B002A05DA03F07F03204663732F
:1058B40003F081FB0B4D637BA86843F01003637313
:1058C400031B58425841FFF7D9FE86F31188BFF3F2
:1058D4006F8FAB68A34203D1BDE8704003F02CBCCA
:1058E40070BD00BF844E00204FF02003EFF3118100
:1058F40083F31288BFF36F8F044B9A68D37B013B09
:10590400D37381F31188BFF36F8F7047844E0020E7
:1059140010B54FF02003EFF3118483F31288BFF323
:105924006F8F084B00209A68D37B0133D373FFF742
:10593400A5FE84F31188BFF36F8FBDE8104003F018
:10594400FBBB00BF844E0020024B03F11802C3E9E5
:1059540006227047844E0020F8B54FF02003EFF381
:10596400118583F31288BFF36F8F19498868437BCD
:1059740003F07F03437303F01EFB08468B685A7BD6
:1059840062F07F025A7350F8182FCC69824208BF24
:10599400002222B9C3E900042360CB610CE093F92F
:1059A4000E6092F90E70BE420ED0B7420CDD516803
:1059B400C3E900210B6053600120FFF75FFE284616
:1059C400BDE8F840FCF716B8A242E3D01268E0E75D
:1059D400844E0020F8B5044618B9FFF7BDFF2046F1
:1059E400F8BD831C20D100F0A9F9851E4FF02003D7
:1059F400EFF3118783F31288BFF36F8F0C4EB068F7
:105A0400FFF754FEB0680B492246183000F0E0F866
:105A1400B2683846537B43F010035373FBF7EAFF35
:105A240000F08CF9281ADBE76FF001052D1ADDE789
:105A3400844E0020B7900000431C10B5044605D1E5
:105A4400074B9868FFF71EFF204610BDFFF7C2FF03
:105A54004FF47A73A0FB0303C00940EA4360F4E700
:105A6400844E0020014B9868704700BF844E00208C
:105A74002DE9F04104464FF02003EFF3118683F340
:105A84001288BFF36F8F037BD9070BD586F3118878
:105A9400BFF36F8F404080F311884FF0040002DFA2
:105AA400BDE8F081437B1A0704D586F31188BFF360
:105AB4006F8FF5E723F0200242F00801D20920D1CC
:105AC4004173A36813B1204603F07DFA04F1180072
:105AD40003F03CFB4FF0000804F15007256DBD4274
